:020000040800F2
:1000000000000120E1010108F5B00008F7B0000888
:10001000F9B00008FBB00008FDB0000800000000C7
:10002000000000000000000000000000FFB0000819
:1000300001B100080000000003B1000805B100088C
:1000400031020108310201083102010831020108C0
:1000500031020108310201083102010831020108B0
:1000600031020108310201083102010831020108A0
:100070003102010831020108310201080DB1000806
:1000800031020108310201083102010800000000BC
:100090000000000000000000000000003102010824
:1000A0003102010831020108310201083102010860
:1000B0003102010831020108310201083102010850
:1000C0003102010831020108310201083102010840
:1000D000310201083102010831020108000000006C
:1000E000310201083102010831020108000000005C
:1000F0000000000000000000000000001DB100082A
:10010000000000003102010831020108310201083B
:1001100000000000000000000000000000000000DF
:10012000310201083102010855B10008310201080D
:100130003102010800000000000000000000000083
:100140000000000000000000000000008DB1000869
:1001500031020108310201083102010831020108AF
:100160003102010831020108000000000000000017
:10017000000000000000000000000000000000007F
:100180000000000031020108000000000000000033
:04019000310201082F
:1001A00010B5054C237833B9044B13B10448AFF3B1
:1001B00000800123237010BDD80200200000000041
:1001C0000017010808B5034B1BB103490348AFF3FF
:1001D000008008BD00000000DC02002000170108BC
:1001E00053B94AB9002908BF00281CBF4FF0FF319E
:1001F0004FF0FF3000F082B9ADF1080C6DE904CE8C
:1002000000F016F8DDF804E0DDE9022304B07047E1
:1002100080EA104080EA102080EA101046F696131B
:1002200000F00F0043FA00F000F00100704700BF3B
:100230002DE9F047089E04468846002B4BD18A42A0
:10024000154667D9B2FA82F24AB1C2F1200701FA23
:1002500002F320FA07F7954047EA030894404FEA73
:10026000154E230CB8FBFEF71FFA85FC0EFB178812
:1002700043EA084307FB0CF1994209D9EB1807F14F
:10028000FF3080F01B81994240F21881023F2B44DD
:100290005B1AA4B2B3FBFEF00EFB103344EA034436
:1002A00000FB0CFCA44509D92C1900F1FF3380F0A8
:1002B0000781A44540F2048102382C4440EA0740FB
:1002C000A4EB0C0400271EB1D4400023C6E9004370
:1002D0003946BDE8F0878B4209D9002E00F0EB804B
:1002E0000027C6E9000138463946BDE8F087B3FA71
:1002F00083F7002F47D18B4202D3824200F2FA806B
:10030000841A61EB030301209846002EE0D0C6E971
:100310000048DDE702B9FFDEB2FA82F2002A40F0BF
:100320008F80491B4FEA154E1FFA85F80127B1FB54
:10033000FEFC230C0EFB1C1143EA014308FB0CF1ED
:10034000994207D9EB180CF1FF3002D2994200F222
:10035000CD808446591AA3B2B1FBFEF00EFB1014F7
:1003600043EA044408FB00F8A04507D92C1900F122
:10037000FF3302D2A04500F2B6801846A4EB080471
:1003800040EA0C409FE7C7F1200CBB4022FA0CFE6C
:100390004EEA030E01FA07F420FA0CF521FA0CF3E9
:1003A0004FEA1E482543B3FBF8F92C0C08FB193320
:1003B0001FFA8EFA44EA034309FB0AF49C4202FA4C
:1003C00007F200FA07F10BD91EEB030309F1FF3026
:1003D00080F087809C4240F28480A9F10209734436
:1003E0001B1BADB2B3FBF8F008FB103345EA034426
:1003F00000FB0AFAA24508D91EEB040400F1FF3302
:100400006BD2A24569D90238744440EA0940A0FB86
:100410000289A4EB0A044C45C2464B4654D351D042
:10042000002E69D0B1EB0A0564EB030404FA0CFC5E
:10043000FD40FC404CEA0505C6E90054002747E7AB
:10044000C2F1200320FA03F7954001FA02F021FAE5
:1004500003F34FEA154E3843010CB3FBFEF71FFAC6
:1004600085F80EFB173341EA034107FB08F38B4283
:1004700004FA02F407D9691807F1FF3C2FD28B4226
:100480002DD9023F2944CB1A81B2B3FBFEF00EFBFB
:10049000103341EA034100FB08F38B4207D9691886
:1004A00000F1FF3C17D28B4215D902382944C91AF2
:1004B00040EA07473BE73746304609E70746E7E6A5
:1004C0001846FBE64145ABD2B8EB020A69EB0E02D7
:1004D00001381346A4E76046E9E7184695E7674602
:1004E000D1E781467CE702382C4447E7ACF1020CA7
:1004F0002B442FE7384608E73746E9E6704700BF48
:10050000034613F8012B002AFBD1181A0138704753
:1005100001F0FF01102A2BDB10F0070F08D010F8B4
:10052000013B013A8B422DD010F0070F42B3F6D1B8
:10053000F0B441EA012141EA014122F007047FF0D1
:1005400000070023F0E80256083C85EA010586EA28
:10055000010685FA47F5A3FA87F586FA47F6A5FA64
:1005600087F68EB9EED1F0BC01F0FF0102F0070270
:1005700032B110F8013B013A83EA010313B1F8D11B
:100580000020704701387047002D06BF35460338FC
:10059000073815F0010F07D1013015F4807F02BF35
:1005A000013015F4C03F0130F0BC0138704700BF86
:1005B00010B504460E4B18784FF47A73B3FBF0F382
:1005C0000C4A1068B0FBF3F000F0A8F868B90F2CE3
:1005D00001D901200AE0002221464FF0FF3000F04F
:1005E0005DF8034B5C60002000E0012010BD00BFFF
:1005F00000000020CC00002008B50B4B1A6842F424
:1006000000721A601A6842F480621A601A6842F432
:1006100080721A60032000F02FF80020FFF7C8FF57
:100620000AF062FC002008BD003C0240034A116849
:10063000034B1B780B441360704700BFAC030020D2
:1006400000000020014B1868704700BFAC03002079
:1006500038B50446FFF7F6FF0546B4F1FF3F02D078
:10066000044B1B781C44FFF7EDFF401BA042FAD35C
:1006700038BD00BF00000020074AD36823F4E063C0
:100680001B041B0C000200F4E060184340F0BF6044
:1006900040F40030D060704700ED00E030B4174BFC
:1006A000DB68C3F30223C3F10704042C28BF04242E
:1006B0001D1D062D18D9033B4FF0FF3505FA04F434
:1006C00021EA0401994005FA03F322EA03031943DE
:1006D00000280BDB0901C9B200F1604000F5614060
:1006E00080F8001330BC70470023E5E700F00F00EE
:1006F0000901C9B2024B1954F4E700BF00ED00E054
:1007000014ED00E000F01F02400901239340024A6B
:1007100042F82030704700BF00E100E00138B0F13E
:10072000807F0AD2064B5860064AF02182F82310D7
:100730000020986007221A6070470120704700BFB0
:1007400010E000E000ED00E00268D3B2103B0B497E
:10075000A1FB03131B090A49C95CC165032B06D819
:1007600022F47F7222F003028265806D704722F4CA
:100770007F7222F0030204328265F6E7ABAAAAAACE
:1007800018170108836A826992B9012B0AD01BB13C
:10079000022B01D000207047C36A13F0807F2CD158
:1007A00000207047C36AB3F1C07F28D00020704793
:1007B000B2F5005F05D0022B29D9032B15D00020FC
:1007C0007047032B03D8DFE803F01C041C0A002049
:1007D0007047C36A13F0807F15D100207047C36A49
:1007E000B3F1C07F11D000207047C36A13F0807F3F
:1007F00001D0012070470020704701207047012080
:100800007047012070470120704701207047012088
:100810007047000070B50446FFF714FF002C5BD052
:100820000546002384F83430022384F835302268EA
:10083000136823F00103136023681A6812F0010F94
:100840000AD0FFF7FFFE401B0528F5D9202363657A
:10085000032084F8350070BD1A6820481040616894
:10086000A2680A43E1680A4321690A4361690A43AD
:10087000A1690A43E1690A43216A0A430243616AA2
:1008800004291ED01A602668756925F00705636A79
:100890001D43042B07D1A36A1D43E36A1BB1204605
:1008A000FFF770FF90B975612046FFF74DFFE26DCD
:1008B0003F239340836000206065012384F8353036
:1008C000C9E7E16A206B01430A43DBE74023636524
:1008D000012084F83500BEE70120BCE73F8010F01E
:1008E000F0B583B0044600230193724B1D68724B30
:1008F000A3FB0535AD0A876D3E68C26D08239340A2
:10090000334210D003681A6812F0040F0BD01A6833
:1009100022F004021A60C26D08239340BB60436D4D
:1009200043F001034365E26D01239340334209D054
:100930002268526912F0800F04D0BB60636D43F0EF
:1009400002036365E26D04239340334209D02268B9
:10095000126812F0020F04D0BB60636D43F0040311
:100960006365E26D10239340334224D022681268FD
:1009700012F0080F1FD0BB6023681A6812F4802F92
:100980000DD01B6813F4002F04D1236C9BB12046BB
:10099000984710E0A36C73B1204698470BE01A68A3
:1009A00012F4807F03D11A6822F008021A60236CC7
:1009B0000BB120469847E26D20239340334255D037
:1009C0002268126812F0100F50D0BB6094F83530D6
:1009D000DBB2052B0ED023681A6812F4802F33D0B7
:1009E0001B6813F4002F2AD1636C002B3ED02046E5
:1009F00098473BE02268136823F0160313602268CF
:100A0000536923F080035361236CA3B122681368F8
:100A100023F008031360E26D3F239340BB60002383
:100A200084F83430012384F83530236D002B3FD017
:100A3000204698473CE0A36C002BE7D1EBE7E36B43
:100A4000A3B12046984711E01A6812F4807F09D1BB
:100A50001A6822F010021A60002384F8343001234F
:100A600084F83530E36B0BB120469847636DFBB1DA
:100A7000636D13F0010F17D0052384F83530226819
:100A8000136823F001031360019B01330193AB4210
:100A900004D823681B6813F0010FF5D1002384F8F4
:100AA0003430012384F83530E36C0BB1204698478D
:100AB00003B0F0BDCC000020B5814E1B00230F2BEE
:100AC00000F2C580F0B482B039E0042200E00022D8
:100AD000B2403A4302345E4E46F824205D4A146820
:100AE000EA4302EA04064F6817F4803F01D045EA62
:100AF0000406584C2660646802EA04064F6817F43E
:100B0000003F01D045EA0406524C6660A46802EA40
:100B100004064F6817F4801F01D045EA04064D4CC7
:100B2000A660E46822404E6816F4001F01D045EA32
:100B30000402484CE26001330F2B00F28580012251
:100B40009A400C6804EA0205AA42F4D14C68022CCF
:100B500001D0122C10D1DE08083650F826C003F060
:100B60000704A7000F24BC402CEA040C0C69BC400D
:100B700044EA0C0440F8264004685F000326BE40A7
:100B8000F64306EA040C4C6804F00304BC4044EA53
:100B90000C0404604C6804F1FF3CBCF1010F03D964
:100BA000112C01D0122C10D1846806EA040CCC68F8
:100BB000BC4044EA0C048460446824EA02024C68A5
:100BC000C4F300149C4014434460C26816408A6811
:100BD000BA403243C2604A6812F0805FABD0002254
:100BE00001921D4A546C44F480445464526C02F4E3
:100BF00080420192019A9C08A61C154A52F8267060
:100C000003F0030296000F22B24027EA0207134ABC
:100C100090423FF45CAF02F5806290420ED002F544
:100C2000806290420CD002F5806290420AD002F5B8
:100C3000806290423FF449AF072249E7012247E72B
:100C4000022245E7032243E702B0F0BC7047704739
:100C500000380140003C01400038024000000240E2
:100C600012B9090481617047816170474369594035
:100C700041617047F8B50668346A04F00F07C4F3A1
:100C80004343C4F30A14022B2ED16CB307EB870243
:100C9000D3000344596C39B305462246304602F06E
:100CA00005FBBA003A44D3002B445A6C22445A64E0
:100CB000DA6C2244DA6406EB4713D3F810150B4ABA
:100CC0000A408AB1D3F8002522F0804242F0004267
:100CD000C3F80025BB00D919CA002A4492F8503045
:100CE00083F0010382F85030F8BD00BF0000F81F08
:100CF000F0B585B09DF828609DF82C70BDF830C027
:100D000090F89042012C2AD00546012085F89002E7
:100D1000880000EB010E4FEACE042C4484F83830F2
:100D2000A4F840C084F8391084F83F7002F07F0EB8
:100D300084F83AE04FEAD21E84F83BE00844C4004D
:100D40002C4484F83C60CDF808C0019700962868D0
:100D500002F0C5FB002385F8903205B0F0BD0220FB
:100D6000FBE790F89032012B0BD010B5044601231D
:100D700080F89032006802F06CFD002084F8900248
:100D800010BD02207047002837D0F0B58BB0064662
:100D9000032380F891320AF0B7FC306802F02FFA92
:100DA000344654F810CB6D460FCC0FC50FCC0FC591
:100DB00094E8030085E80300371D97E80E006046BD
:100DC00002F0D9F90121306802F01FFA344654F8D4
:100DD00010CB6D460FCC0FC50FCC0FC594E80300A8
:100DE00085E8030097E80E00604602F099FA0123B7
:100DF00086F8913200200BB0F0BD01207047F8B5A5
:100E00009DF81870BDF820609DF824C08D000D4439
:100E1000EC00044484F83B2084F83F306FB901EBC8
:100E20008105EC000444032584F84250032B00F2B2
:100E3000B380DFE803F00AAA3E7B01EB8105EC00FA
:100E40000444022584F84250F0E7012F40F0A480CA
:100E5000002A40F0A18036B901EB8102D30003449F
:100E6000012283F8512001EB8102D300034493F85F
:100E70005130B3B901EB8102D3000344002283F85F
:100E8000422001EB8102D300034493F85C30022B33
:100E900000F0828001EB8102D300034483F83DC05F
:100EA0007AE001EB8102D3000344022283F842205E
:100EB000E7E722BB01EB8102D300034493F85130F2
:100EC000ABB901EB8102D3000344002283F8422036
:100ED00001EB8102D300034493F85C30022B5BD01A
:100EE00001EB8102D300034483F83DC054E001EBE1
:100EF0008102D3000344022283F84220E8E701EB99
:100F00008102D300034493F850303BB901EB8102D6
:100F1000D3000344002283F842203DE001EB81022C
:100F2000D3000344022283F8422035E0B2B901EB3A
:100F30008102D300034493F851303BB901EB8102A5
:100F4000D3000344002283F8422025E001EB810214
:100F5000D3000344022283F842201DE001EB81020A
:100F6000D300034493F850303BB901EB8102D30026
:100F70000344002283F842200EE001EB8102D300FB
:100F80000344022283F8422006E001EB8102D300F1
:100F90000344002283F842208A005418E3000344EB
:100FA000079C5C649E64002483F85C40DC6483F8E6
:100FB000391083F85D401144CB0003F13801027C05
:100FC0000144006802F0FCFAF8BD30B583B0054674
:100FD0000468D4F840340193D4F840340093009B63
:100FE00023F02E030093019B13F0020F07D0019B07
:100FF00013F0010F25D1009B43F002030093019BE6
:1010000013F0080F10D0009B43F008030093019BDE
:1010100013F0040F31D0AB69022B19D0EB68032B0E
:1010200026D028460AF0AAFB019B13F0200F03D01C
:10103000009B43F020030093009BC4F8403403B0AE
:1010400030BDA36923F00053A3610AF097FBD2E7F8
:10105000019B03F4C023B3F5802F04D0012128683D
:1010600002F0D4F9DDE70221286802F0CFF9D8E7D1
:101070004EF66022C4F80424D3E7D4F8403423F0B9
:101080002E03C4F840342A68936943F000539361F7
:10109000CAE7F8B506460D46076807EB411707F59E
:1010A000A064A36813F0040F41D00423A360E36895
:1010B00043F00203E360A36813F4007F6DD1A368DB
:1010C00013F0010F00F08A80336963B1AB00591946
:1010D000CA003244916C2269C2F31202891A2B446D
:1010E000DA003244D164AA002A44D30033440122F6
:1010F00083F85D2000219965A26093F83F30002BB2
:1011000057D0022B55D0032B5DD1D7F8003543F0D3
:101110000053C7F8003505EB8502D30033440122A4
:1011200083F85C20294630460AF034FB4BE0A36884
:1011300013F0200F02D02023A360BCE7A36813F0B4
:10114000080F17D1A36813F4806FB4D0E36843F09D
:101150000203E360006802F07CFB1023A36005EB50
:101160008502D3003344082283F85D204FF4806366
:10117000A360A0E7E36843F00203E36001EB8102B0
:10118000D3000344052283F85D201023A3600823C5
:10119000A360006802F05DFB8DE7E36843F00203A3
:1011A000E3602946306802F054FB4FF40073A360FB
:1011B00013E0E36843F00203E3602946306802F07D
:1011C00048FB1023A360AB005919CA00324492F8BF
:1011D000503083F0010382F85030F8BDA36813F05B
:1011E000020F50D0E36823F00203E36005EB8502B1
:1011F000D300334493F85D30012B20D0052B32D03F
:10120000062B01D0082B21D1AA002A44D300334455
:101210009A6D511C9965032A2DD9AA002A44D3003E
:10122000334400229A65042283F85C20D7F8003505
:1012300023F0804343F00043C7F8003506E005EB98
:101240008502D3003344012283F85C200223A3608B
:1012500005EB8502D300334493F85C2029463046E1
:101260000AF098FAB9E705EB8502D300334405226A
:1012700083F85C20EAE705EB8502D30033440222C1
:1012800083F85C20D2E7A36813F0800F26D1A3680F
:1012900013F0100FA1D005EB8502D300334493F86F
:1012A0003F30032B32D0AB005919CA00324403211E
:1012B00082F85D101022A2601D4405FA01F31E445D
:1012C00096F83F300BB1022B87D1D7F8003523F0C9
:1012D000804343F00043C7F800357EE7E36843F0FE
:1012E0000203E360AB005919CA003244916D013129
:1012F00091652B44DA003244062382F85D3029469A
:10130000306802F0A6FA8023A36066E7E36843F042
:101310000203E3602946306802F09BFAC3E7F8B5A0
:10132000046804EB411404F5A064A36813F0040FEF
:1013300024D10E460546A36813F0200F25D02023A4
:10134000A36001EB8102D300034493F83D30012BED
:101350001AD18F007A18D3000344042283F85D2049
:10136000E36843F00203E360006802F072FAB9191F
:10137000C8002844022380F85C3005E00423A36001
:10138000E36843F00203E360F8BDA36813F0400F85
:101390004CD1A36813F4007F5FD1A36813F0010F51
:1013A00066D1A36813F0080F77D1A36813F0100F6C
:1013B00040F08480A36813F0800F40F09580A3680C
:1013C00013F4806F40F0A180A36813F0020FDBD00C
:1013D000E36823F00203E36001EB8102D3000344DE
:1013E00093F85D30012B00F0A480032B00F0C48043
:1013F000042B00F0C980052B00F0D180062B02D011
:10140000082B40F0A180B2003244D3002B449A6DE7
:10141000511C9965032A40F2CA80282303FB065316
:1014200000229A65042283F85C208DE08B00591815
:10143000CA000244042182F85D103344DA000244F9
:1014400000239365E36843F00203E36031460068DC
:1014500002F0FFF94023A36096E7E36843F002033C
:10146000E360006802F0F5F94FF40073A3608BE7C6
:101470008F007A18D300034400229A65E36843F092
:101480000203E360006802F0E4F90123A360B919E4
:10149000C800284480F85D3076E70823A360E3683D
:1014A00043F00203E360006802F0D3F906EB860123
:1014B000C8002844052380F85D3065E78F007A185E
:1014C000D300034400229A65E36843F00203E3601B
:1014D000006802F0BEF9B919C8002844032380F857
:1014E0005D301023A3604FE7E36843F00203E3603D
:1014F000006802F0AEF906EB8601CB002B44062211
:1015000083F85D208023A3603EE7E36843F0020395
:10151000E360006802F09DF91023A3604FF480633C
:10152000A36006EB8601CB002B44082283F85D20E4
:101530002AE78A000A44D3000344012283F85C208E
:1015400093F83F30022B0CD00223A36006EB8602F7
:10155000D3002B4493F85C20314628460AF01AF950
:1015600012E78A000A44D300034493F8512082F022
:10157000010283F85120E7E701EB8102D300034425
:10158000022283F85C20DFE78A000A44D300034488
:10159000022283F85C20002283F83D20D4E701EB8F
:1015A0008102D3000344052283F85C20CCE7282382
:1015B00003FB0653022283F85C20C5E7F8B5044616
:1015C0000568284601F08AFE012800D0F8BD206891
:1015D00001F080FE0028F9D0206801F07BFE10F4B5
:1015E000001F03D023684FF400125A61206801F0F5
:1015F00071FE10F4801F03D023684FF480125A61EB
:10160000206801F067FE10F0806F03D023684FF070
:1016100080625A61206801F05DFE10F0020F02D076
:10162000236802225A61206801F054FE10F0005F26
:1016300025D1206801F04EFE10F0807F31D1206866
:1016400001F048FE10F0080F2FD1206801F042FE93
:1016500010F0007F30D1206801F03CFE10F0100F38
:10166000B4D02268936923F0100393612046FFF7FA
:1016700001FB2268936943F010039361A6E7D5F854
:10168000403423F02E03C5F8403420460AF07CF89D
:101690000121206801F0BAFE23684FF000525A6120
:1016A000C7E72046FFF791FCC9E720460AF060F83B
:1016B000236808225A61C8E7206802F0BBF8074691
:1016C000002604E0F1B22046FFF729FE0136A368A8
:1016D000B3420FD90123B3403B42F7D005EB461389
:1016E000D3F8003513F4004FECD0F1B22046FFF7E9
:1016F000D0FCEBE723684FF000725A61ABE738B5D6
:1017000090F89032012B0ED00446012580F89052BB
:10171000006801F06EFD2946206801F0B1FE00204E
:1017200084F8900238BD0220FCE790F89032012B3B
:101730000BD010B50446012380F89032006802F007
:10174000A3F9002084F8900210BD0220704708B56C
:10175000006801F07BFE08BD01EB8101CB0018445D
:1017600090F85C00704708B5006801F0B3FE08BD52
:1017700008B5006801F0A5FE08BD0000002800F0D3
:10178000BB8170B582B00446036813F0010F3BD0F3
:10179000A74B9B6803F00C03042B2CD0A44B9B6835
:1017A00003F00C03082B21D06368B3F5803F4FD0C2
:1017B000B3F5A02F52D09E4B1A6822F480321A60E3
:1017C0001A6822F480221A606368002B50D0FEF75A
:1017D00039FF0546964B1B6813F4003F14D1FEF702
:1017E00031FF401B6428F5D903208AE1904B5B68E8
:1017F00013F4800FD8D08E4B1B6813F4003F03D036
:101800006368002B00F07A81236813F0020F55D033
:10181000874B9B6813F00C0F3ED0854B9B6803F001
:101820000C03082B33D0E368002B68D0814B0122D6
:101830001A60FEF707FF05467D4B1B6813F0020F89
:1018400054D1FEF7FFFE401B0228F5D9032058E1D2
:10185000774A136843F480331360B5E7744B1A6812
:1018600042F480221A601A6842F480321A60ABE7B0
:10187000FEF7E8FE05466E4B1B6813F4003FC3D02D
:10188000FEF7E0FE401B6428F5D9032039E1684BE0
:101890005B6813F4800FC6D1654B1B6813F0020F11
:1018A00004D0E368012B01D001202AE1604A1368CB
:1018B00023F0F803216943EAC1031360236813F09E
:1018C000080F40D0636963B35B4B01221A60FEF7D7
:1018D000B9FE0546564B5B6F13F0020F33D1FEF78E
:1018E000B1FE401B0228F5D903200AE1504A1368D3
:1018F00023F0F803216943EAC1031360DEE74D4B8F
:1019000000221A60FEF79EFE0546494B1B6813F045
:10191000020FD3D0FEF796FE401B0228F5D9032014
:10192000EFE0454B00221A60FEF78CFE0546404B67
:101930005B6F13F0020F06D0FEF784FE401B0228F7
:10194000F5D90320DDE0236813F0040F79D0384B7C
:101950001B6C13F0805F33D100230193344B1A6C5E
:1019600042F080521A641B6C03F080530193019B78
:101970000125324B1B6813F4807F23D0A368012B11
:1019800034D0052B38D02A4B1A6F22F001021A6787
:101990001A6F22F004021A67A368002B36D0FEF7F4
:1019A00051FE0646224B1B6F13F0020F48D1FEF783
:1019B00049FE801B41F288339842F3D90320A0E00E
:1019C0000025D6E71D4A136843F480731360FEF7C1
:1019D00039FE0646194B1B6813F4807FCED1FEF703
:1019E00031FE801B0228F5D903208AE0104A136FCC
:1019F00043F001031367CFE70D4B1A6F42F0040267
:101A00001A671A6F42F001021A67C5E7FEF71AFE5D
:101A10000646074B1B6F13F0020F11D0FEF712FEA4
:101A2000801B41F288339842F3D9032069E000BF5C
:101A30000038024000004742800E474200700040DC
:101A4000E5B9A369002B5BD0304A926802F00C0222
:101A5000082A58D0022B17D02D4B00221A60FEF70F
:101A6000F1FD0446294B1B6813F0007F42D0FEF7BE
:101A7000E9FD001B0228F5D9032042E0234A136C3C
:101A800023F080531364DCE7214B00221A60FEF739
:101A9000D9FD05461D4B1B6813F0007F06D0FEF7ED
:101AA000D1FD401B0228F5D903202AE0E369226A10
:101AB0001343626A43EA8213A26A5208013A43EA74
:101AC0000243E26A43EA0263104A5360104B012268
:101AD0001A60FEF7B7FD04460C4B1B6813F0007F3D
:101AE00006D1FEF7AFFD001B0228F5D9032008E060
:101AF000002006E0002004E001207047012000E003
:101B0000002002B070BD0120FBE700BF003802409A
:101B100060004742264B9B6803F00C03042B44D023
:101B2000082B01D0234870472DE9F04B204B5A6811
:101B300002F03F025B6813F4800F13D01C4B59680E
:101B4000C1F3881100231C48A1FB0001FEF748FBEC
:101B5000174B5B68C3F3014301335B00B0FBF3F049
:101B6000BDE8F08B124B5B68C3F388131E46002759
:101B70005C010025E41A65EB0705A90141EA9461BF
:101B8000A001001B61EB0501CB0043EA5073C400C8
:101B9000A01943EB07018B0243EA905384022046CD
:101BA00019460023FEF71CFBD2E70348704700BF2D
:101BB000003802400024F40040787D01002800F045
:101BC0009D8070B504464F4B1B6803F00F038B429A
:101BD00009D2CBB24B4A1370136803F00F038B4248
:101BE00001D0012070BD236813F0020F17D013F04D
:101BF000040F04D0444A936843F4E053936023688D
:101C000013F0080F04D0404A936843F46043936094
:101C10003D4A936823F0F003A068034393600D46A8
:101C2000236813F0010F32D06368012B21D09A1E74
:101C3000012A25D9344A126812F0020F60D03249C5
:101C40008A6822F0030213438B60FEF7FBFC064612
:101C50002D4B9B6803F00C036268B3EB820F16D028
:101C6000FEF7F0FC801B41F288339842F0D9032044
:101C7000B8E7254A126812F4003FE0D10120B1E72D
:101C8000214A126812F0007FD9D10120AAE71D4B2A
:101C90001B6803F00F03AB4209D9EAB2194B1A7063
:101CA0001B6803F00F03AB4201D001209AE72368C1
:101CB00013F0040F06D0144A936823F4E053E1684C
:101CC0000B439360236813F0080F07D00E4A936804
:101CD00023F46043216943EAC1039360FFF71AFFCD
:101CE000094B9B68C3F30313084AD35CD840084BE5
:101CF00018600020FEF75CFC002073E701207047AD
:101D000001206FE7003C024000380240C4FE010899
:101D1000CC000020014B1868704700BFCC000020A9
:101D200008B5FFF7F7FF044B9B68C3F38223034A10
:101D3000D35CD84008BD00BF00380240D4FE010883
:101D400008B5FFF7E7FF044B9B68C3F34233034A30
:101D5000D35CD84008BD00BF00380240D4FE010863
:101D600030B583B00446036813F0050F0ED1236825
:101D700013F0020F36D1236813F0080F00F099809A
:101D8000227C4D4B1A60002003B030BD4B4B00222B
:101D90001A60FEF757FC0546494B1B6813F0006FAD
:101DA00006D0FEF74FFC401B0228F5D90320EBE7D5
:101DB0006268A3681B0743EA8213414AC2F8843071
:101DC0003E4B01221A60FEF73DFC05463C4B1B686A
:101DD00013F0006FCBD1FEF735FC401B0228F5D97C
:101DE0000320D1E700230193354B1A6C42F0805257
:101DF0001A641B6C03F080530193019B314A1368F2
:101E000043F480731360FEF71DFC05462D4B1B68E1
:101E100013F4807F06D1FEF715FC401B0228F5D98C
:101E20000320B1E7264B1B6F13F4407312D0E26816
:101E300002F440729A420DD0214B1A6F22F4407284
:101E4000214901200860002008601A671B6F13F009
:101E5000010F12D1E36803F44072B2F5407F1DD048
:101E6000174A936823F4F813936015490B6FE268DF
:101E7000C2F30B0213430B677DE7FEF7E3FB054656
:101E80000F4B1B6F13F0020FE4D1FEF7DBFB401B7F
:101E900041F288339842F3D9032075E708498A68EC
:101EA00022F4F81223F0704323F4407313438B6041
:101EB000DBE7002068E700BFE011474268004742C7
:101EC0000038024000700040400E474238B50446DA
:101ED0000268D36823F0A003D360FEF7B3FB054686
:101EE0002368DB6813F0200F07D1FEF7ABFB401B24
:101EF000B0F57A7FF4D9032000E0002038BD38B572
:101F00000368DA6812F0400F01D0002038BD0446A3
:101F10004FF0FF32DA60FEF795FB05462368DB6879
:101F200013F0400F07D1FEF78DFB401BB0F57A7F11
:101F3000F4D90320EAE70020E8E738B500285CD0B0
:101F40000446437F002B40D0022363772368CA22D4
:101F50005A62236853225A622046FFF7D0FF054693
:101F6000002836D12268936823F4E00323F040036D
:101F7000936021688A68636820690343606903434A
:101F800013438B602368E2681A6122681369A168B1
:101F900043EA014313612268D36823F08003D360CE
:101FA00023689B6813F0200F1BD02268136C23F466
:101FB000802313642268136CA1690B4313642368A4
:101FC000FF225A620123637709E0037708F0A8FF34
:101FD000BAE72368FF225A62042363770125284663
:101FE00038BD2046FFF772FF0028DED02368FF22AD
:101FF0005A62042363770125F1E70125EFE7002307
:1020000002E001330A38C0B20928FAD81B01DBB25A
:102010001843704770B5037F012B66D00123037707
:10202000022343773AB94B7813F0100F03D003F033
:10203000EF030A334B700E460446002A32D1C878AB
:10204000FFF7DDFF05047078FFF7D9FF45EA0025AB
:10205000B078FFF7D4FF2843357840EA4535236848
:10206000CA225A62236853225A622046FFF747FF6A
:10207000064610BB236825F07F4525F0C0055D604E
:102080002268D36823F08003D36023689B6813F031
:10209000200F1CD02368FF225A620123637700239C
:1020A000237712E0CD784878000240EA05408D7829
:1020B00028430D7840EA4535D1E72368FF225A626C
:1020C00004236377002323770126304670BD204622
:1020D000FFF7FCFE0028DDD02368FF225A620423AC
:1020E0006377002323770126EFE70226EDE7F8B5B3
:1020F000037F012B78D00D4604460123037702238A
:102100004377002A46D103689B6813F0400F01D142
:102110000023CB702878FFF772FF06046878FFF77A
:102120006EFF46EA0026A878FFF769FF3043EE7895
:1021300040EA06462368CA225A62236853225A623A
:102140002046FFF7DCFE0746002835D1236806F05D
:102150007F3626F0FE461E602268936823F48023B3
:10216000936021688B68EA682869024313438B6097
:102170002268D36823F08003D36023689B6813F040
:10218000200F23D02368FF225A62012363770023A4
:10219000237719E003689B6813F0400F01D10023F7
:1021A000CB702B786878000240EA0340AB78184384
:1021B000EE7840EA0646BDE72368FF225A62042310
:1021C00063770023237701273846F8BD2046FFF7C1
:1021D0007DFE0028D6D02368FF225A62042363774D
:1021E000002323770127EFE70227EDE7030903EB3D
:1021F00083035A0000F00F001044C0B2704770B55E
:1022000003689B6A4B6003681B69C3F30E038B6012
:1022100003681B6803F07F3323F0FE431D0C05F0B9
:102220003F000870C3F306264E7003F07F048C70E5
:1022300005F04005CD705AB90D46FFF7D7FF28705D
:102240003046FFF7D3FF68702046FFF7CFFFA87036
:10225000002070BD70B503685B6823F07F4323F0F6
:10226000C003180CC870C3F304264E7003F03F057A
:102270008D70C3F342330B705AB90C46FFF7B6FFAB
:10228000E0703046FFF7B2FF60702846FFF7AEFF00
:10229000A070002070BDF8B505460F4616461C46D6
:1022A0003BE02CB1FEF7CEF9069BC01AA04234D316
:1022B0002A68536823F0E00353606B68B3F5827FAC
:1022C0000BD0AB6AB3F5005F14D0012385F8513011
:1022D000002385F85030032027E0AB68B3F5004FAA
:1022E00002D0B3F5806FECD12A68136823F0400365
:1022F0001360E6E72A68136823F400531B041B0CE1
:1023000013602A68136843F400531360DDE7012368
:10231000B34209D0B4F1FF3FC3D12B689B6837EAC1
:102320000303F4D00023F3E70020F8BD10B582B01A
:10233000044600920B4600228021FFF7ACFF0346C3
:1023400010B9184602B010BD636D43F020036365F9
:102350000323F6E700283BD010B504460023836230
:1023600090F85130002B2ED0022384F8513022688F
:10237000136823F0400313606368A2681343E268A4
:1023800013432269134362691343A26902F4007282
:102390001343E2691343226A1343A16A22680B4381
:1023A0001360638B03F00403616A22680B4353607C
:1023B0002268D36923F40063D361002060650123A0
:1023C00084F8513010BD80F8503008F0B7FDCBE7ED
:1023D000012070472DE9F04385B099460C9D90F897
:1023E0005030012B00F0108104460F4616460123A1
:1023F00080F85030FEF726F9804694F85130DBB271
:102400006268012B15D0B2F5827F0AD00223012227
:1024100084F85120002284F85020184605B0BDE809
:10242000F083A268002A40F0E780042B01D0022349
:10243000EDE7002F00F0E280002E00F0E180B9F11E
:10244000000F00F0DF8094F85130DBB2012B2BD06D
:1024500000236365A663A4F83E90A4F83C9027632C
:10246000A4F83690A4F834902364636423681A684F
:1024700012F0400F03D11A6842F040021A60E3687C
:10248000B3F5006F14D063681BB1E38E9BB2012BD0
:1024900007D1236817F8012B1A73E38E013B9BB217
:1024A000E3864FF0010961E0052384F85130CFE75E
:1024B00063681BB1E38E9BB2012B07D1236837F809
:1024C000022BDA60E38E013B9BB2E3864FF00109F9
:1024D00013E0E38F9BB26BB123689A6812F0010F8F
:1024E00008D0DB6826F8023BE38F013B9BB2E38711
:1024F0004FF00109B5F1FF3F1CD1E38E9BB21BB930
:10250000E38F9BB2002B55D0B9F1000FE1D0E38EE1
:102510009BB2002BDDD023689A6812F0020FD8D04E
:1025200037F8022BDA60E38E013B9BB2E3864FF073
:102530000009CEE7FEF786F8A0EB0800A842DCD33E
:10254000032364E7E38F9BB26BB123689A6812F0B0
:10255000010F08D0DB683370E38F013B9BB2E38748
:1025600001364FF00109B5F1FF3F1BD1E38E9BB25D
:1025700013B9E38F9BB2EBB1B9F1000FE2D0E38E58
:102580009BB2002BDED023689A6812F0020FD9D0DC
:102590003A781A73E38E013B9BB2E38601374FF022
:1025A0000009CFE7FEF74EF8A0EB0800A842DDD304
:1025B00003232CE7CDF800802B4601220221204680
:1025C000FFF769FE08B1032321E74246294620466A
:1025D000FFF7ACFE034618B120236365012316E71D
:1025E000A268002A7FF413AF03922268D168039196
:1025F00092680392039A0AE7022308E7012306E799
:10260000012304E7012302E7022306E710B4036A6B
:10261000046A24F001040462846924F0F00444EAAA
:10262000021223F00A030B43826103625DF8044B3C
:10263000704710B4036A23F0100303628469036ACD
:1026400024F4704444EA023223F0A00343EA011365
:10265000826103625DF8044B7047836823F0700366
:1026600041F0070119438160704710B4846824F475
:102670007F4442EA03230B43234383605DF8044B0A
:102680007047022380F839300268136843F0010371
:102690001360012380F839300020704790F83830FB
:1026A000012B7DD010B50446012380F83830022379
:1026B00080F839300268936823F47F4323F077036E
:1026C00093600B68402B57D010D9702B3ED01FD889
:1026D000502B47D0602B32D1CA6849680068FFF799
:1026E000A8FF60212068FFF7B8FF28E0102B4DD02D
:1026F00008D9202B4FD0302B21D130210068FFF793
:10270000ACFF1CE0DBB900210068FFF7A6FF16E074
:10271000B3F5805F0ED0B3F5005F10D1CB684A6887
:1027200089680068FFF7A1FF2268936843F480433B
:10273000936004E00268936823F007039360012329
:1027400084F83930002084F8380010BDCB684A681E
:1027500089680068FFF789FF2268936843F0770370
:102760009360ECE7CA6849680068FFF74FFF5021A3
:102770002068FFF772FFE2E7CA6849680068FFF760
:1027800045FF40212068FFF768FFD8E71021006867
:10279000FFF763FFD3E720210068FFF75EFFCEE776
:1027A000022070470368234A90420ED0B0F1804F58
:1027B0000BD0A2F57C42904207D002F58062904295
:1027C00003D002F58062904203D123F070034A687F
:1027D0001343184A90421AD0B0F1804F17D0A2F597
:1027E0007C42904213D002F5806290420FD002F5F5
:1027F000806290420BD002F59A32904207D002F5E7
:102800008062904203D002F58062904203D123F4AB
:102810004073CA68134303608B68C3620B688362AA
:10282000044B984202D00123436170470B69036354
:10283000F9E700BF00000140A8B110B5044690F8C8
:1028400039305BB1022384F83930211D2068FFF74D
:10285000A9FF012384F83930002010BD80F83830FA
:1028600008F0F6FBEEE70120704790F83830012BB6
:1028700022D030B4012280F83820022380F8393089
:102880000468636823F070036360046863680D681C
:102890002B4363600468A36823F08003A36004688B
:1028A000A36849680B43A36080F83920002380F8AF
:1028B0003830184630BC7047022070472DE9F84385
:1028C000044601680A6922F44052C36813430B614D
:1028D0000168CA6822F4164222F00C02836800697B
:1028E000034360690343E06903431343CB602168FA
:1028F0004A6922F44072A36913434B61E369B3F55B
:10290000004F60D02368B84A934200F0148102F56A
:102910008062934200F00F81FFF702FA00EB800023
:1029200000EB80006568AD00B0FBF5F5AF4FA7FB8D
:1029300005356D092E01FFF7F3F900EB800000EB80
:1029400080006568AD00B0FBF5F9FFF7E9F900EB31
:10295000800000EB80006568AD00B0FBF5F5A7FBDB
:1029600005356D094FF0640808FB15952D013235CA
:10297000A7FB05356D0905F0F0053544FFF7D0F9E3
:1029800000EB800000EB80006668B600B0FBF6F656
:10299000FFF7C6F900EB800000EB800063689B0046
:1029A000B0FBF3F0A7FB0030400908FB10684FEACA
:1029B000081808F13208A7FB0837C7F34317236844
:1029C0002F449F600DE12368874A93425BD002F554
:1029D0008062934257D0FFF7A3F900EB800000EB31
:1029E000800065686D00B0FBF5F5804FA7FB0535ED
:1029F0006D092E01FFF794F900EB800000EB8000D9
:102A000065686D00B0FBF5F9FFF78AF900EB80000F
:102A100000EB800065686D00B0FBF5F5A7FB0535A0
:102A20006D094FF0640808FB1595ED003235A7FBE2
:102A300005356D096D0005F4F8753544FFF770F93B
:102A400000EB800000EB800066687600B0FBF6F6D5
:102A5000FFF766F900EB800000EB800063685B0025
:102A6000B0FBF3F3A7FB03235B0908FB13684FEAF2
:102A7000C80808F13208A7FB0837C7F342172368D4
:102A80002F449F60ADE0FFF75BF900EB800000EBA7
:102A9000800065686D00B0FBF5F5544FA7FB053568
:102AA0006D092E01FFF74CF900EB800000EB800070
:102AB00065686D00B0FBF5F9FFF742F900EB8000A7
:102AC00000EB800065686D00B0FBF5F5A7FB0535F0
:102AD0006D094FF0640808FB1595ED003235A7FB32
:102AE00005356D096D0005F4F8753544FFF728F9D3
:102AF00000EB800000EB800066687600B0FBF6F625
:102B0000FFF71EF900EB800000EB800063685B00BC
:102B1000B0FBF3F3A7FB03235B0908FB13684FEA41
:102B2000C80808F13208A7FB0837C7F34217236823
:102B30002F449F6055E0FFF703F900EB800000EBA6
:102B400080006568AD00B0FBF5F5284FA7FB0535A3
:102B50006D092E01FFF7F4F800EB800000EB800018
:102B60006568AD00B0FBF5F9FFF7EAF800EB80000F
:102B700000EB80006568AD00B0FBF5F5A7FB0535FF
:102B80006D094FF0640808FB15952D013235A7FB40
:102B900005356D0905F0F0053544FFF7D1F800EB78
:102BA000800000EB80006668B600B0FBF6F6FFF729
:102BB000C7F800EB800000EB800063689B00B0FB6F
:102BC000F3F0A7FB0030400908FB10684FEA081833
:102BD00008F13208A7FB0837C7F3431723682F44CF
:102BE0009F60BDE8F88300BF001001401F85EB51D6
:102BF0002DE9F04105460F4616469846069C2B687F
:102C00001B6837EA03030CBF01230023B3421DD125
:102C1000B4F1FF3FF3D02CB1FDF714FDA0EB080099
:102C2000A042ECD92A68D36823F4D073D3602A6811
:102C3000536923F001035361202385F8393085F867
:102C40003A30002385F83830032000E00020BDE84A
:102C5000F08158B310B5044690F839300BB32423F3
:102C600084F839302268D36823F40053D3602046B7
:102C7000FFF724FE2268136923F49043136122684E
:102C8000536923F02A0353612268D36843F4005345
:102C9000D3600020E063202384F8393084F83A3090
:102CA00010BD80F8383008F0EBF9D8E70120704704
:102CB0002DE9F04182B01E4690F83930DBB2202B6E
:102CC00055D104460D469046002955D0002A55D0CE
:102CD00090F83830012B53D0012380F8383000238E
:102CE000C363212380F83930FDF7ACFC0746A4F814
:102CF0002480A4F8268010E000963B460022802124
:102D00002046FFF775FF00283CD12B882268C3F3CB
:102D1000080353602369C3B90235E38C9BB2B3B196
:102D2000E38C013B9BB2E384A368B3F5805FE3D0FF
:102D300000963B46002280212046FFF759FF18BB32
:102D40002A7823685A600135E7E70135E5E7009600
:102D50003B46002240212046FFF74AFF0346A8B920
:102D6000202284F83920002284F8382000E0022351
:102D7000184602B0BDE8F0810123F9E70123F7E727
:102D80000223F5E70323F3E70323F1E70323EFE748
:102D9000F0B40A6892FAA2F2B2FA82F218E00E696E
:102DA000C46893FAA3F5B5FA85F56D00032707FA11
:102DB00005F524EA050493FAA3F5B5FA85F56D0047
:102DC00006FA05F52C43C4604C68022C36D001325B
:102DD0000B6833FA02F464D0012494402340F6D007
:102DE0004E68046893FAA3F5B5FA85F56D000327DC
:102DF00007FA05F524EA050493FAA3F5B5FA85F573
:102E00006D0006FA05F52C4304604C68013C012C6A
:102E1000C5D88E68846893FAA3F5B5FA85F56D0078
:102E200007FA05F524EA050493FAA3F5B5FA85F542
:102E30006D0006FA05F52C438460B0E793FAA3F41D
:102E4000B4FA84F4072C15D84D69046A93FAA3F6F2
:102E5000B6FA86F6B6000F2707FA06F624EA060445
:102E600093FAA3F3B3FA83F39B0005FA03F3234326
:102E70000362ACE74C69456A1B0A93FAA3F6B6FAFB
:102E800086F6B6000F2707FA06F625EA060593FA36
:102E9000A3F3B3FA83F39B0004FA03F32B434362D7
:102EA00095E74A68013A012A02D90120F0BC70472F
:102EB000C968426822EA030201FB03F3134343603B
:102EC000F3E7000030B4036A23F001030362036AEE
:102ED0004468826922F073020D682A4323F00203DA
:102EE0000D692B4323F001034D682B430F4DA8427E
:102EF00007D044608261CA6842630362012030BC2B
:102F0000704723F008034D6943EA850323F0040367
:102F10008D6843EA850324F480748D692C4324F47E
:102F20000074CD6944EA4504E3E700BF00000140B6
:102F300030B4036A23F010030362036A44688269B1
:102F400022F4E6420D6842EA052223F020030D69CF
:102F500043EA051323F010034D6843EA0513104DAF
:102F6000A84207D044608261CA688263036201207C
:102F700030BC704723F080034D6943EA851323F08A
:102F800040038D6843EA851324F480648D6944EA24
:102F9000850424F40064CD6944EAC504E2E700BF77
:102FA0000000014030B4036A23F480730362036AB3
:102FB0004468C26922F073020D682A4323F4007347
:102FC0000D6943EA052323F480734D6843EA052322
:102FD0000F4DA84207D04460C261CA68C263036251
:102FE000012030BC704723F400634D6943EA852318
:102FF00023F480638D6843EA852324F480548D692B
:1030000044EA051424F40054CD6944EA4514E2E787
:103010000000014030B4036A23F480530362036A62
:103020004468C26922F4E6420D6842EA052223F4AC
:1030300000530D6943EA053323F480534D6843EA96
:103040000533084DA84207D04460C261CA680264D3
:103050000362012030BC704724F480448D6944EA47
:103060008514F1E7000001400368244A90420ED025
:10307000B0F1804F0BD0A2F57C42904207D002F510
:103080008062904203D002F58062904203D123F027
:1030900070034A681343194A90421AD0B0F1804F26
:1030A00017D0A2F57C42904213D002F58062904284
:1030B0000FD002F5806290420BD002F59A32904216
:1030C00007D002F58062904203D002F58062904200
:1030D00003D123F44073CA68134303608B68C3624F
:1030E0000B888362054B984205D0436943F0010386
:1030F0004361012070470B7C0363F6E70000014049
:1031000008B5102910D009D9B1F5807F10D0B1F5DC
:10311000805F11D11146FFF77DFF04E001290BD13B
:103120001146FFF7CFFE08BD1146FFF701FFFAE792
:103130001146FFF737FFF6E70020F4E70B7B8A68BC
:10314000134323F480634A68134323F400630A683B
:10315000134323F48053CA89134323F400530A69A9
:10316000134323F480434A69134323F40043134376
:1031700043640120704784B010B5044603A880E87A
:103180000E00089B012B20D1A36B23F48033A36393
:10319000E36823F4840323F04003E360E36823F44B
:1031A0004013E3600F9B012B0AD0204600F09AF8F1
:1031B000069B012B14D00020BDE8104004B07047DE
:1031C000E36843F48013E360EFE7E36843F0400310
:1031D000E360204600F086F84FF48033A363E7E70E
:1031E000A36843F00603A360A36843F02003A36031
:1031F000E1E7836843F00103836000207047836840
:1032000023F0010383600020704708B5C36823F0F2
:10321000C043C360012909D019B9C36843F0804392
:10322000C3603220FDF714FA002008BDC36843F0E4
:103230000053C360F5E70000890141F020010161FE
:1032400000230133054A934205D8026912F0200F8A
:10325000F7D1002070470320704700BF400D0300E6
:103260001023036100230133054A934205D8026904
:1032700012F0100FF7D1002070470320704700BFF5
:10328000400D030070B49DF80C4064B903339D08F1
:1032900007E000EB023303F5805351F8046B1E6026
:1032A0000134AC42F5D3002070BC70470332920861
:1032B000002393420CD210B400F58054246841F8E6
:1032C000044B01339342F7D308465DF8044B704733
:1032D000084670474269806910407047406900F0B5
:1032E00001007047002301330C4A934211D8026950
:1032F000002AF8DA036943F0010303610023013374
:10330000064A934207D8026912F0010FF7D1002054
:103310007047032070470320704700BF400D030033
:1033200084B038B5044605A880E80E002546002381
:10333000C4F8003EA36B23F48023A363A36B23F4A0
:103340000023A363A36B43F40013A363079B032B26
:103350000ED0D4F8003423F00403C4F80034102154
:103360002046FFF769FF2046FFF77AFF002213E0AF
:10337000B4F1A04FEDD0D4F8003443F00403C4F806
:103380000034ECE705EB42134FF0FF31C3F80815AA
:103390000021C3F80C150132069B9342F2D801219B
:1033A000204600F06DF8C820FDF752F90023A36114
:1033B0004FF0FF336361B4F1A04F17D04FF40073A7
:1033C000636203F18073A3620D4BC4F80031089B64
:1033D0001BB9A36943F01003A361A269094B13430E
:1033E000A3610020BDE8384004B0704780236362C9
:1033F00003F5C003A362044BC4F80031E7E700BF44
:103400000003E000080020A3E000400010B400F535
:103410008064D0F8003423F00303C0F80034D0F8FF
:10342000003401F003021343C0F80034012905D031
:10343000022907D000205DF8044B70474BF680331B
:103440006360F7E741F270736360F3E710B582B031
:103450000446D0F840340193019B23F02E030193DE
:10346000019B43F48073C0F840340A20FDF7F0F864
:10347000019B23F48073C4F84034002002B010BDD7
:1034800082B0D0F840340193019B23F02E030193C6
:10349000019B13F4805F01D101290CD0019B13F42F
:1034A000805F05D021B9019B23F48053C0F84034DC
:1034B000002002B07047019B43F48053C0F84034B1
:1034C000ECE782B0D0F8403401930198C0F341405A
:1034D00002B0704700F58060806880B27047F0B439
:1034E0009DF8144000EB411505F5A0664FF0FF373D
:1034F000B760032C1CD8DFE804F0024D021540F23F
:103500009D47F76012F0800F07D1B0F1A04F0FD0A8
:10351000F76847F06007F7600AE0F76847F48077DC
:10352000F76005E040F29D67F76012F0800F2CD144
:10353000D0F81864012707FA01F13143C0F81814D4
:10354000816941F0007181619B0503F0FE53D10256
:1035500001F4F0410B4352B202F4004213439DF8D0
:103560001020022A21D000221343A20402F4402298
:103570001343BDF81820C2F30A021343C5F80035FF
:10358000032C15D00020F0BC7047F76847F4807713
:10359000F760CDE740F22527F76012F0800FC7D023
:1035A000F76847F4C077F760C2E74FF40032DBE713
:1035B000D5F8003543F00053C5F80035E2E70000C8
:1035C00080B58AB002AFF860B9601346FB71002382
:1035D0007B7700237B830023FB834FF480733B8343
:1035E00000237B61FB68B3F1A04F2AD0BB681B7935
:1035F000002B26D1FB79002B0BD1BB685B79012B0B
:1036000007D1BB685B781946F86800F003FA00231D
:1036100009E1FB79012B14D1BB685B785A01FB6887
:10362000134403F5A063DB68BA6852785101FA6865
:103630000A4402F5A06223F06003D360BB68002255
:103640005A71BB681B69002B19D0BB681B69BA682B
:1036500012891344013BBA681289B3FBF2F3FB836E
:10366000FA8B3B8B9A420CD93B8BFB83FB8BBA6862
:10367000128902FB03F31A46BB681A6101E00123B9
:10368000FB83BB68DB78002B07D0FB8BBA68128901
:1036900002FB03F31A46BB681A61BB681B69C3F3DC
:1036A0001202FB8BDB041946614B0B401A43BB68CB
:1036B0009B7A5B0703F0C043B96849784801F96811
:1036C000014401F5A06113430B61FB79002B0AD083
:1036D000BB68D968BB685B785A01FB68134403F583
:1036E000A0630A465A61FB6803F580639B6803F098
:1036F0000103002B0CBF01230023DBB27B77BB68E7
:103700005B785A01FB68134403F5A0631B68BA6831
:1037100052785101FA680A4402F5A06223F000537E
:103720001360BB685B785A01FB68134403F5A06320
:103730001B687A7F52071046BA6852785101FA68BE
:103740000A4402F5A06203431360BB685B785A0128
:10375000FB68134403F5A0631B687B617B6923F05E
:1037600080437B617B6943F000437B61BB685B788E
:103770005A01FB68134403F5A0631A467B69136082
:10378000FB79002B4ED1BB68DB78002B4AD1BB689C
:103790001B69002B46D0BB68DB79032B30D801A214
:1037A00052F823F0B5370008D9370008B5370008BC
:1037B000D9370008BB681B6903339B087B837A8B6E
:1037C000FB68DB6A9BB29A421CD9FB689B6943F099
:1037D0002002FB689A6115E0BB681B6903339B08F4
:1037E0007B837A8BFB6803F580631B699BB29A42EB
:1037F0000AD9FB689B6943F08062FB689A6103E029
:1038000000BF02E000BF00E000BFBB68D968BB6832
:103810005A78BB681B6998B2002300930346F86886
:10382000FFF730FD002318462037BD4680BD00BF9E
:103830000000F81F80B483B000AF78607B6803F5A8
:1038400080635B699BB218460C37BD465DF8047B0C
:10385000704780B485B000AF78600B46FB700023E2
:10386000FB60FB785A017B68134403F5A0631B6877
:103870009B0C03F00303002B0BD0FB785A017B68F1
:10388000134403F5A0631B689B0C03F00303022B96
:103890005CD1FB785A017B68134403F5A0631B6875
:1038A000FA7851017A680A4402F5A06243F0804335
:1038B00013607B68DB6A03F47F03002B33D1FB7852
:1038C0005A017B68134403F5A0631B68FA78510121
:1038D0007A680A4402F5A06223F000431360FB7883
:1038E0005A017B68134403F5A0631B68FA78510101
:1038F0007A680A4402F5A06243F000431360FB6853
:103900000133FB60FB68B3F57A7F1DD8FB785A0161
:103910007B68134403F5A0631B6803F00043B3F115
:10392000004FECD06FE0FB785A017B68134403F53D
:10393000A0631B68FA7851017A680A4402F5A06214
:1039400043F0004313605EE000BF5CE0FB785A0187
:103950007B68134403F5A0631B68FA7851017A6809
:103960000A4402F5A06243F0804313607B6803F5CC
:1039700080631B699BB2002B33D1FB785A017B68B3
:10398000134403F5A0631B68FA7851017A680A446E
:1039900002F5A06223F000431360FB785A017B68B4
:1039A000134403F5A0631B68FA7851017A680A444E
:1039B00002F5A06243F000431360FB680133FB6033
:1039C000FB68B3F57A7F1DD8FB785A017B681344F6
:1039D00003F5A0631B6803F00043B3F1004FECD084
:1039E00011E0FB785A017B68134403F5A0631B6860
:1039F000FA7851017A680A4402F5A06243F0004364
:103A0000136000E000BF002318461437BD465DF880
:103A1000047B704780B485B000AF78600B46FB70C4
:103A20000123FB730023BB60FB7BDB041A46154BB1
:103A30001340FA7851017A680A4402F5A06243F013
:103A400000431361FB785A017B68134403F5A063BC
:103A50001B68BB60BB6823F08043BB60BB6843F05E
:103A60000043BB60FB785A017B68134403F5A063F5
:103A70001A46BB681360002318461437BD465DF82C
:103A8000047B70470000F81F80B586B000AF7860F7
:103A900000233B617868FFF7B2FB10217868FFF7DD
:103AA000CBFB7868FFF7DCFB0023FB751FE0FB7D99
:103AB0005A017B68134403F5A0631B68FB60FB6835
:103AC00043F08043FB60FB6823F00043FB60FB682E
:103AD00023F40043FB60FB7D5A017B68134403F52C
:103AE000A0631A46FB681360FB7D0133FB75FB7D09
:103AF0000F2BDCD90023FB7534E0FB7D5A017B687A
:103B0000134403F5A0631B68FB60FB6843F080432C
:103B1000FB60FB6843F00043FB60FB6823F4004359
:103B2000FB60FB7D5A017B68134403F5A0631A46D2
:103B3000FB6813603B6901333B613B69B3F57A7FF6
:103B40000CD8FB7D5A017B68134403F5A0631B6806
:103B500003F00043B3F1004FECD000E000BFFB7D69
:103B60000133FB75FB7D0F2BC7D97B6803F58063A1
:103B70001A464FF0FF3353617B684FF0FF325A61B2
:103B80007868FFF736FB002318461837BD4680BD1E
:103B9000D0F87433DB699A78062A01D00020704788
:103BA000D0F8B823196A521A998B8A42F6D30422A4
:103BB0009A70F3E70B7803704B7843708B78CA7870
:103BC00003EB022343800B7903714B7943718B79AB
:103BD0008371CB790A7A03EB02230381704738B5EE
:103BE0000446D0F87433DD69697849B9297881B918
:103BF000D4F87433D86908B10CF048FB002038BD04
:103C000001F0ABF96978204601F0BEF900236B7032
:103C1000ECE7204601F0A1F92978204601F0B4F93B
:103C200000232B70E4E70000F0B585B00446D0F81F
:103C30007413FF230122097900F0FCFCFF284AD00D
:103C40000146204600F0B2FCD4F8745334200CF046
:103C500015FBE861D4F87433DD690723AB7094F881
:103C60001F331A2202FB034393F84333012B40D046
:103C7000022B47D14A480CF0DBFB0A200CF0F0FB8A
:103C8000484B2B630023AB706B7194F81F331A22DF
:103C900002FB034393F84833AB7694F81F3302FBDF
:103CA0000343B3F84A332B8394F81F3302FB0343D7
:103CB00093F84C33AB83092B01D80A23AB8394F8D8
:103CC0001F331A2202FB034393F84073022F28BFCD
:103CD0000227002638E034480CF0AAFBD4F87433ED
:103CE000196832480CF0A4FB0A200CF0B9FB022042
:103CF00054E02F480CF09CFB0A200CF0B1FB2D4B3C
:103D00002B63BFE72C480CF093FB0A200CF0A8FBB8
:103D1000022043E02971204601F024F90146687031
:103D200094F81C332A79288B02900320019094F890
:103D30001D030090204601F000F90022697820461A
:103D400007F0DAFD0136F6B2BE4226D294F81F1310
:103D5000731C1A2202FB01F202EBC303234493F803
:103D6000401311F0800FD5D1E970204601F0FAF828
:103D70000146287094F81C33EA78288B02900320BF
:103D8000019094F81D030090204601F0D6F800221F
:103D90002978204607F0B0FDD4E7002005B0F0BD3B
:103DA00048010208BD410008FC00020808010208A1
:103DB00030010208554100085C01020800B583B0DB
:103DC000009100F58E734FF40852012100F0BFFFFF
:103DD00003B05DF804FB00B583B0009100F58E736D
:103DE0004FF40452012100F0B2FF03B05DF804FB70
:103DF00010B5212404740A24447442EA0122428248
:103E000000218182C1820A4600F081FF10BD38B5D1
:103E1000212505740925457442EA012242820022C7
:103E200082829DF8102092B2C282194600F06FFF84
:103E300038BD38B5A12505740125457442EA012233
:103E40004282002282829DF8102092B2C2821946DC
:103E500000F05DFF38BD08B5212202740B224274C8
:103E6000B1FA81F14909418200218182C1820A4669
:103E700000F04DFF08BD70B50446D0F87433DD691D
:103E80006B79052B3BD8DFE803F0033A13031B2CB7
:103E90000921FFF7A0FF08B101262EE004F58E717D
:103EA00005F12600FFF786FE02236B71012624E050
:103EB000E98DFFF783FF20BB04236B7101261CE013
:103EC00000221146FFF794FF18B1032805D0012600
:103ED00013E005236B7101260FE005236B710126AA
:103EE0000BE00021FFF7B7FF064660B901236B71B5
:103EF000D4F8C433022120469847304670BD0126CD
:103F0000FBE70126F9E70126F7E700238380C3805A
:103F100083720281016070470346807A28BB0120CA
:103F200098720020904220D270B407E000229A726A
:103F300019E0013080B22946904211D2DC889D8878
:103F4000AC42F3D01E684D1C345D0C70D988013131
:103F500089B2D9801C89A142EBD10021D980E8E740
:103F600000219972104670BC70470021997210466A
:103F700070470346807A50BB01209872002090421F
:103F800025D2F0B408E07EB900229A721DE001301B
:103F900080B22146904215D29D886C1CDE88B442C6
:103FA000F2D01F89BC42EED04C1C1E6809787155B6
:103FB0009988013189B299801D89A942E7D10021F0
:103FC0009980E4E7002199721046F0BC7047002107
:103FD000997210467047704730B583B00546D0F8E7
:103FE0007433DC69A378062B10D8DFE803F00406ED
:103FF0000F0F231B3100236B98476369227E0092C9
:10400000002201212846FFF714FF10B1002003B061
:1040100030BD228B616904F10800FFF7AAFF052378
:10402000A370F3E7D0F8B83313F0010FEED00423F8
:10403000A370EBE76378227E616900F05BFF0623E3
:10404000A370D5F8B8332362002384F82430DDE769
:10405000617807F045FC012810D194F82430002B3A
:10406000D4D1228B616904F10800FFF782FF01239C
:1040700084F824302846FFF7AEFFC7E7617828466A
:1040800007F02EFC0528C1D1A17E284600F0E9FEEC
:104090000028BBD10423A370B8E7000038B5D0F8DE
:1040A0007433DC69228B002A49D0264904F10800C8
:1040B000FFF732FF238B984201D0022040E0224DCF
:1040C0000021284600F09CF8204C6070002105F18A
:1040D000200000F095F8A070002105F1400000F0EC
:1040E0008FF8E070002105F1600000F089F8207180
:1040F000002105F1800000F083F86071002105F1D6
:10410000A00000F07DF8A071002105F1C00000F0D2
:1041100077F8E071002105F1E00000F071F82072FD
:10412000002408E021460A4800F06AF8074B2344BF
:1041300058720134E4B2052CF4D9002000E00220CA
:1041400038BD00BFB003002020170108B8030020CD
:104150002018010838B5D0F87433DC69104A002300
:10416000937053701371D370937153711372D37131
:1041700004E00C4A002542F823500133012BF8D902
:10418000238B022B01D902232383064B6361502228
:1041900000F58E7104F10800FFF7B7FE002038BD6E
:1041A000B8030020B003002008B5FFF777FF08B977
:1041B000014808BD0020FCE7B803002010B5D0F886
:1041C0007433DC690C4A0023137053709370D370FE
:1041D00013710A4A1360238B042B01D90423238310
:1041E000064B6361282200F58E7104F10800FFF789
:1041F0008CFE002010BD00BFC8030020D0030020AB
:1042000070B40568067A427A42B18A4238D9436866
:1042100003FB016305EBD30503F0070600221346F9
:1042200006E0CC08A2420AD22B78D1008B400132A2
:10423000416811F0070FF4D0CC080134F2E7F340E5
:1042400001228A40541E2340C4689C421AD8046943
:104250009C421BD3847A6CB10139012404FA01F128
:10426000194207D052421343C269A2420BD002FB4B
:1042700003F308E0C269012A05D002FB03F302E060
:10428000002300E00023184670BC70470023FAE7C3
:10429000002306E003F1DE0200EB82020021516000
:1042A00001330E2BF6D9002304E0C218002182F856
:1042B0001C110133B3F5007FF7D300230370437063
:1042C00001228270C0F8B8330276402181714376B2
:1042D00080F81C3380F81D231846704708B5037812
:1042E000DBB20A2B00D008BDD0F87433002BFAD013
:1042F0009B699847F7E7000070B584B0044643789F
:10430000072B00F2ED80DFE803F0042D4779828C63
:10431000ADCE082100F039FD18B10124204604B0CB
:1043200070BD94F82723A2710125657094F81C33A1
:10433000217902920026019694F81D230092802292
:10434000204600F0FAFD94F81C336179A2790292BC
:10435000019694F81D2300923246204600F0EDFDB0
:104360002C46DBE7122100F010FD08B10124D5E74F
:10437000B4F82A135D480CF05BF80A200CF070F8D2
:10438000B4F828135A480CF053F80A200CF068F8D7
:10439000022363700124C1E7012100F040FD08B150
:1043A0000124BBE7022007F0C0FA012584F81C5362
:1043B000294650480CF03CF80A200CF051F8032331
:1043C000637094F81C332179A27902920026019639
:1043D00094F81D2300928022204600F0AEFD94F850
:1043E0001C336179A2790292019694F81D23009200
:1043F0003246204600F0A1FD2C468FE7092100F04F
:10440000DDFC00286ED104236370012486E7B0F838
:10441000341300F0D3FC002866D105236370012417
:104420007CE790F82E1399B100F58E75FF232A468C
:1044300000F0DDFC08B1012470E729462E480BF09E
:10444000F7FF0A200CF00CF806236370012465E7DF
:104450002A480BF0EDFF0A200CF002F806236370E7
:1044600001245BE790F82F1399B100F58E75FF23B7
:104470002A4600F0BCFC08B101244FE72946204839
:104480000BF0D6FF0A200BF0EBFF0723637001242B
:1044900044E71C480BF0CCFF0A200BF0E1FF072398
:1044A000637001243AE790F8301389B100F58E75F6
:1044B000FF232A4600F09BFC044608B101242DE7A7
:1044C000294611480BF0B4FF0A200BF0C9FF25E77D
:1044D0000E480BF0ADFF0A200BF0C2FF00241DE7D1
:1044E00001241BE7012419E7012417E778010208DA
:1044F0008401020890010208A8010208BC01020818
:10450000D0010208E0010208F001020804020208DA
:1045100038B590B10D46044680F8BC230023C0F89E
:104520007433C0F87833FFF7B3FE0DB1C4F8C45349
:10453000204607F031F9002038BD05480BF078FF20
:1045400004480BF075FF0A200BF08AFF0220F3E706
:10455000180202082002020808B5B1B10A46D0F8D4
:1045600078333BB9591CC0F87813DC3340F823206A
:10457000002008BD0A480BF05BFF0A480BF058FF0B
:104580000A200BF06DFF0220F3E705480BF050FF07
:1045900005480BF04DFF0A200BF062FF0220E8E710
:1045A00018020208340202085002020838B590F8D6
:1045B00036338B4226D905460C4685F81F1317481B
:1045C0000BF036FF0A200BF04BFF1A2303FB0454B9
:1045D00094F8411312480BF02BFF0A200BF040FF18
:1045E00094F842130F480BF023FF0A200BF038FF1A
:1045F00094F843130C480BF01BFF0A200BF030FF1C
:10460000002038BD09480BF013FF09480BF010FFDC
:104610000A200BF025FF0220F3E700BF6802020822
:104620008802020898020208A8020208180202087A
:10463000B802020870B400240AE01A2505FB060639
:1046400096F843539D4219D0FF2B17D0013464B222
:10465000012C15DC26461A2505FB040595F8415367
:104660008D4201D0FF29F1D11A2505FB060595F8E9
:1046700042539542E1D0FF2AE8D1DEE7E0B200E004
:10468000FF2070BC704710B5044607F0AFF8012159
:10469000204607F02BF9002010BD000030B587B090
:1046A000044602238DF817300378DBB20A2B4ED86C
:1046B000DFE813F00B004D001800F7004D0050002C
:1046C000D4006D0076008500EF0090F81E33002BBB
:1046D0003DD001230370C82007F027F9204607F0DA
:1046E000AFF834E076480BF0A3FE0A200BF0B8FEDA
:1046F000642007F01AF9204607F094F884F81D03A7
:10470000052323700021204600F02CFC60718021DD
:10471000204600F027FC0146207194F81C33A27952
:1047200002920025019594F81D23009280222046D4
:1047300000F003FC94F81C336179A2790292019590
:1047400094F81D2300922A46204600F0F6FB002034
:1047500007B030BDFFF7D0FD0028F8D159480BF065
:1047600067FE0A200BF07CFE002384F81F3394F8C8
:104770003133012B02D007232370E8E752480BF0B6
:1047800057FE0A200BF06CFE08232370DFE7D0F8F9
:10479000C433002BDBD00121984708232370D6E7D0
:1047A00090F8371300F04CFB0028D0D10923237078
:1047B00046480BF03DFE0A200BF052FEC7E7D0F84A
:1047C0007833E3B10023C0F87433FBB1D4F8743309
:1047D000002B3AD09B682046984750BB0623237095
:1047E000D4F8743319683A480BF022FE0A200BF013
:1047F00037FED4F8C433032120469847A7E735484D
:104800000BF016FE0A200BF02BFEA0E703F1DC02F2
:1048100054F82220117994F84123914202D00133B7
:10482000DBB2D2E703F1DC0254F82220C4F874238F
:10483000F5E70C232370D4F87433196826480BF07D
:10484000F7FD0A200BF00CFE81E70C2323702348B0
:104850000BF0EEFD0A200BF003FE78E7D0F874337E
:104860005BB11B6998478DF817009DF81730002B36
:104870007FF46DAF0A23237069E70C230370184897
:104880000BF0D6FD17480BF0D3FD0A200BF0E8FD26
:104890005DE7D0F87433002B3FF459AF5B6998475C
:1048A00055E7FFF7F5FCD4F87433002B3FF44FAF16
:1048B000DB68204698470023C4F8743347E700BFFD
:1048C000D8020208EC0202080003020828030208CA
:1048D00064030208440302087803020898030208EC
:1048E00018020208C0030208C0F8B813704708B5E0
:1048F000D0F8B8330133C0F8B833FFF7EFFC08BD88
:1049000008B503784BB9012380F81E33D0F8C433BF
:104910000BB104219847002008BD0378DBB2012BBE
:10492000F9D102230370F6E710B5044606F06CFFD8
:104930002179204600F028FB6179204600F024FB15
:10494000002384F81E33D4F8C43313B10521204664
:10495000984706480BF06CFD0A200BF081FD2046BD
:1049600006F044FF03232370002010BDD803020883
:1049700010B40B7803704B7843708B78CC7803EBD2
:10498000042343800B7903714B7943718B798371D5
:10499000CB79C371082A16D90B7A4A7A03EB022322
:1049A00003818B7ACA7A03EB022343810B7B4A7B18
:1049B00003EB022383818B7B8373CB7BC3730B7CE1
:1049C00003744B7C43745DF8044B70470B780370A1
:1049D0004B7843708B788370CB78C3700B790371FD
:1049E0004B7943718B798371CB79C3710B7A0372E5
:1049F00070470B7803704B7843708B788370CB785B
:104A0000C3700B794A7903EB022383808B7983711E
:104A100070474378032B00D070470378023B9A42DB
:104A2000A8BF1A4692B2002393420DD210B4C41804
:104A3000A47801F8014B02339BB29342F7D30023D1
:104A40000B705DF8044B704700230B70704700003B
:104A500030B583B00446037E013B0A2B00F2E180AF
:104A6000DFE803F00610354154627E8A9DABC20038
:104A7000427900F1100100F006FA022323760120AA
:104A800003B030BD417906F02BFF012803D0042884
:104A900019D00120F4E7237CE28A4AB113F0800F99
:104AA00003D1052323760120EAE703232376E7E7F2
:104AB00013F0800F03D1072323760120E0E70923B9
:104AC00023760120DCE70B2323760120D8E7D0F8FA
:104AD000B833C38103798289816800F0FBF904232C
:104AE00023760120CCE7017906F0FAFE012806D0F2
:104AF000052800F09880042804D00120C0E709238D
:104B00002376F5E70B2323760120B9E743798289E1
:104B100001250095816800F0C7F9D4F8B833E38126
:104B2000062323762846ABE7417906F0D9FE012813
:104B300007D0052808D002280AD004280CD001206C
:104B40009EE7072323769BE70C232376032097E732
:104B500005232376012093E70B23237602208FE79A
:104B600003790022114600F0B5F9D4F8B833E38197
:104B700008232376012083E7017906F0B1FE01289E
:104B800005D0042807D005284FD0012078E70D2351
:104B90002376002074E70B232376012070E7437906
:104BA000012500950022114600F07EF9D4F8B833B3
:104BB000E3810A232376284662E7417906F090FED6
:104BC000012805D0022807D0042809D0012057E782
:104BD0000D232376002053E70923237601204FE796
:104BE0000B23237601204BE7437E0133DBB2437670
:104BF000022B10D9D0F8C4330621984700236376DE
:104C00000B480BF015FC0B480BF012FC0A200BF0C4
:104C100027FC022034E706F0F7FD01202076A07083
:104C20002EE701202CE703202AE7032028E700BF16
:104C300018020208F003020803780A8813440B8064
:104C40000378184470472DE9F04383B00C460B7885
:104C500003704B7843708B78C97803EB0123438052
:104C60002379037163794371A3798371E379C37104
:104C7000237A0372092A47D905460923ADF806307D
:104C80000026012E40DC6A88BDF806309A423BD9E6
:104C90000DF106012046FFF7CFFF04464378042BB1
:104CA000EFD1B1461A2000FB06F008302844214617
:104CB0000230FFF78BFE0027B8461A2303FB095387
:104CC0009B7B9F421DDA6A88BDF806309A4218D94C
:104CD0000DF106012046FFF7AFFF04464378052B90
:104CE000EAD108F101081A2000FB09F000EBC80026
:104CF0000830284421460430FFF77BFE01377FB29D
:104D0000DAE7013676B2BCE703B0BDE8F08383781A
:104D1000012B03D0022B09D0012305E081608281A1
:104D200001230376022282701846704710B50446AC
:104D3000FFF78EFE034620B1022806D10122A270A1
:104D400003E00122A27000222276184610BD38B579
:104D5000BDF810508478012C04D02A461946FFF77C
:104D6000D6FF38BD61F07F0404740621417442828D
:104D700002F47F44B4F5407F03D000228282C582D2
:104D8000EBE740F209428282F9E7F0B583B00446CE
:104D900000F58E750E4600912B464FF4807200216F
:104DA000FFF7D5FF074610B1384603B0F0BD3246D5
:104DB000294604F54870FFF7DBFDF5E7F0B583B051
:104DC00004460E4600F11C0500912B464FF400727C
:104DD0000021FFF7BCFF074610B1384603B0F0BD15
:104DE0003246294604F23230FFF72DFFF5E7F0B5E1
:104DF00083B017461D4600F58E740093234641F498
:104E000040720021FFF7A3FF064610B1304603B001
:104E1000F0BD2A4639462046FFF7FBFDF6E708B508
:104E20008378012B04D000221146FFF770FF08BDE4
:104E3000002303740522427441828382C382F2E715
:104E400008B58378012B04D000221146FFF75FFFDD
:104E500008BD002303740922427441828382C38205
:104E6000F2E708B58378012B04D000221146FFF742
:104E70004EFF08BD022303740123437400234382C1
:104E80008182C382F1E730B585B0154600240394D2
:104E9000082302930191009423462246294606F0F6
:104EA00004FD204605B030BD30B585B00C4619462E
:104EB0009DF8203090F81D5305B100230393029212
:104EC00001940123009300231A4606F0EEFC002013
:104ED00005B030BD30B585B01D4600240394029264
:104EE0000191012200922346294606F0DEFC20466D
:104EF00005B030BD30B585B01D4600240394029244
:104F00000191012200920323294606F0CEFC20469F
:104F100005B030BD00230A2B0CD803F1DE0200EBF4
:104F20008202526812F4004F02D00133DBB2F2E782
:104F300098B270474FF6FF70704710B584B0BDF857
:104F4000204002949DF81C4001949DF81840009464
:104F500006F084FC002004B010BD08B506F097FCF4
:104F6000002008BD38B504460D46FFF7D3FF4FF6C5
:104F7000FF73984206D045F4004500F1DE0304EBD0
:104F800083046560C0B238BD0A2906D8DE3100EB63
:104F900081014B68C3F30E034B6000207047000093
:104FA00008B5044B03EB8002526852680344187A38
:104FB000904708BD1C03002008B5084B1B5C53B983
:104FC000064B01221A5403EB8002526812681844FF
:104FD000007A904708BD0020FCE700BF1C030020BA
:104FE00038B5044C04EB80056D68AD680444207A44
:104FF000A84738BD1C03002038B5044C04EB8005DD
:105000006D68ED680444207AA84738BD1C03002071
:1050100010B5044B03EB8004646824690344187AD8
:10502000A04710BD1C0300204278007840EA02200F
:105030007047C278837843EA0222437843EA022326
:10504000007840EA032070470170090A41707047F8
:105050000170C1F307234370C1F307438370090E46
:10506000C170704713462AB10A78027001300131CD
:10507000013BF9D1704701700130013AFBD1704713
:1050800030B4451C037808781B1A013A04D04C1C34
:1050900028462146002BF4D0184630BC704700E06B
:1050A000013003780BB18B42FAD1184670470000EB
:1050B00030B400252B4601E001250133012B15D822
:1050C0001A01174CA258002AF6D00468A242F4D163
:1050D000134A02EB0312546882689442EDD1104ADD
:1050E00002EB0312946842699442E6D1022B0AD083
:1050F000A1B90B4A02EB03139B89B3F5807F07D05C
:10510000002030BC70472DB9022905D10020F8E7F6
:105110001020F6E70020F4E71220F2E71020F0E775
:10512000F4020020002000E00130012804D803012F
:10513000034AD358002BF7D1023818BF012070471B
:10514000F402002070B4002300E00133012B13D8D7
:105150001A01244CA45802689442F6D1214A02EB69
:105160000312546882689442EFD11E4A02EB031284
:10517000946842699442E8D1022B29D021B1194A9E
:1051800002EB0312928952BB21BB164A02EB0312B7
:105190009189013189B2134A02EB03129181581CA3
:1051A00070BC70470133012B04D81A010D4CA25872
:1051B000002AF7D1022B10D006680A4D1C012A19CB
:1051C0002E51846854604069906000209081D5E73A
:1051D0000023E8E74FF48071DDE70020E0E70020DE
:1051E000DEE700BFF40200200138012815D80D4B7E
:1051F00003EB00139B89B3F5807F03D01BB1013B08
:105200009BB200E00023074A02EB0012938133B9FE
:1052100003010020034AD05070470220704700204D
:10522000704700BFF4020020002303E05DF8044B48
:1052300070470133012B11D81A0109498A5882425B
:10524000F7D110B41A0100248C500133012BEDD892
:105250001A0103498A588242F7D1F3E7704700BF29
:10526000F402002002394369023B8B4204D943898E
:10527000806A01FB03007047002070470268C36A20
:105280000433490A5289B1FBF2F1186830B1814206
:1052900002D3091A0833F8E758680844704770B514
:1052A00006460D4601F11A00FFF7BEFE3378032BC8
:1052B00000D070BD044605F11400FFF7B5FE44EAC6
:1052C0000040F6E770B506460C46154691B204F16B
:1052D0001A00FFF7B9FE3378032B00D070BD290CFC
:1052E00004F11400FFF7B0FEF8E700234B72C36926
:1052F00073B370B50022134605E0092C0ED08D184B
:105300006B72013223460A2B0DD8056A5C1CEB5CDC
:10531000202BF7D0052BF0D1E523EEE78D182E26B4
:105320006E720132EBE70D4604460A4400235372C5
:10533000036ADB7A0B72006A1C30FFF77AFE286082
:10534000206A1630FFF775FEE880000CA88070BD5B
:10535000704700002DE9F84F82468B460F6800F138
:1053600024090B2220214846FFF785FE00263346FC
:105370004FF008082CE001357B5D2F2BFBD05C2B18
:10538000F9D03D44CBF80050002E43D09AF8243099
:10539000E52B35D0202C37D804238AF82F30002075
:1053A00028E008264FF00B0811E014F0800F23D1FD
:1053B00021461948FFF773FE50BBA4F16103DBB22D
:1053C000192B01D8203CE4B209F8064001362B46DF
:1053D0005D1CFC5C202CD4D92F2CCDD05C2CCBD0E8
:1053E0002E2C01D0B045E0D8B8F10B0F0ED02E2CEA
:1053F000D7D00620BDE8F88F803C084B1C5DD7E76E
:1054000005238AF82430C5E70023C6E70620F1E724
:105410000620EFE70620EDE700040208301A010835
:10542000016809B10A4603E04FF0FF3308E001329A
:105430001378202B01D93A2BF9D13A2B02D0002333
:105440001846704710B44C1C0B78303B092B08D819
:10545000A24209D15BB90132026018465DF8044BE3
:1054600070474FF0FF33F8E74FF0FF33F5E74FF0A9
:10547000FF33F2E738B50D4640B1044603682BB15F
:105480001A781AB1D9888288914203D000232B6000
:10549000092038BD5878FFF783FD10F0010FF5D1D2
:1054A00023682B600020F4E7F8B5C3780BB900201F
:1054B000F8BD0446C56A00F1300701232A46394683
:1054C0004078FFF799FDA8B90023E370236AEB1A2F
:1054D000A269934210D2A678012E09D9A3691D446E
:1054E00001232A4639466078FFF786FD013EF3E73F
:1054F0000020DDE70120DBE70020D9E770B5C36AB3
:105500008B4212D004460D46FFF7CEFF064668B91F
:1055100001232A4604F130016078FFF761FD10B1E4
:1055200001264FF0FF35E56200E00026304670BDF1
:1055300010B504460023C3704FF0FF33C362FFF77A
:10554000DDFF18BB04F22E20FFF76EFD4AF655234F
:1055500098421DD194F83030E92B05D0236B03F02D
:10556000FF130F4A934215D104F16600FFF761FD66
:1055700020F07F400B4B98420ED004F18200FFF7E1
:1055800058FD094B984209D1002002E0042000E0B8
:10559000032010BD0220FCE70020FAE70220F8E714
:1055A000EB00900046415400464154332DE9F0474A
:1055B00084B00F46164600230B60FFF731FF051E2F
:1055C000C0F24581B74B03EB85031C6A002C00F049
:1055D00042813C6006F0FE06237873B16078FFF7E5
:1055E000DFFC10F0010F08D1002E00F0368110F022
:1055F000040F40F0348100202AE100232370E8B238
:105600006070FFF7D9FC10F0010F40F02A811EB145
:1056100010F0040F40F0278100212046FFF788FF9B
:10562000022800F0B6800026042800F01E81012820
:1056300000F21D8104F13B00FFF7F6FCB0F5007F9E
:1056400040F0178104F14600FFF7EEFC074620B951
:1056500004F15400FFF7EDFC0746A76194F84020E1
:10566000A270531EDBB2012B00F2058107FB02F58D
:1056700094F83D80A4F80A80B8F1000F00F0FD8096
:1056800008F1FF3318EA030F40F0F98004F14100FC
:10569000FFF7CAFC8246208110F00F0F40F0F18026
:1056A00004F14300FFF7C0FC814620B904F150002B
:1056B000FFF7BFFC814604F13E00FFF7B5FC014651
:1056C000002800F0E080421902EB1A129145C0F068
:1056D000DC80A9EB0203B3FBF8F3002B00F0D780CA
:1056E0004FF6F57083426CD94FF0030940F6F57020
:1056F000834201D84FF0010903F10208C4F8148075
:10570000E6618B1923623244A262B9F1030F5BD0C8
:10571000BAF1000F00F0C1802B446362B9F1020FAF
:1057200063D008EB480208F0010303EB520303F2D5
:10573000FF13B7EB532FC0F0B2804FF0FF3323615C
:10574000E36080232371B9F1030F51D084F80090F6
:10575000544A938C01339BB29384E3802046FFF735
:1057600063FD002074E0002004AB03EB850343F8E5
:10577000100C0135032D0ED804F130002B0103F578
:10578000DF7318440379002BEDD00830FFF751FC8C
:10579000EAE70025EEE700250AE031462046FFF75C
:1057A000C7FE01287FF640AF0135032D3FF63CAF21
:1057B00004AB03EB850353F8106C002EEDD10320EE
:1057C000F2E74FF0020991E704F15A00FFF72CFCD1
:1057D00000285ED1BAF1000F5DD104F15C00FFF743
:1057E00028FC60624FEA8803A1E74FEA48039EE77E
:1057F00004F16000FFF718FC0128A7D1711C2046B6
:10580000FFF77CFE0028A1D10023237104F22E2093
:10581000FFF70AFC4AF65523984297D104F130006D
:10582000FFF707FC204B984290D104F50570FFF775
:1058300000FC1E4B984289D104F50670FFF7F9FB76
:10584000206104F50770FFF7F4FBE0607EE70B20B2
:1058500004B0BDE8F0870C20FAE70020F8E70A2042
:10586000F6E70320F4E70A20F2E70120F0E70D2035
:10587000EEE70D20ECE70D20EAE70D20E8E70D202C
:10588000E6E70D20E4E70D20E2E70D20E0E70D203C
:10589000DEE70D20DCE70D20DAE70D20D8E70D204C
:1058A000D6E700BFF402002052526141727241619A
:1058B0002DE9F04701297AD943698B4279D91746F6
:1058C0000C4606460378022B43D0032B54D0012B01
:1058D00001D002256EE001EB5108016A01EB58216D
:1058E000FFF70CFE0546002864D106F1300A08F1E6
:1058F0000109C8F3080814F001041FD01AF9083090
:1059000003F00F033A0102F47F621343DBB20AF89B
:1059100008300123F370316A01EB59213046FFF75B
:10592000EDFD0546002845D1C9F3080944B1C7F388
:1059300007120AF809200123F3703BE0FBB2E6E707
:105940001AF9092022F00F02C7F303273A43D2B213
:10595000EFE7016A01EB1421FFF7D0FD054648BBD4
:1059600006F13000640004F4FF74B9B22044FFF77C
:105970006BFB0123F3701DE0016A01EBD411FFF70B
:10598000BDFD0546B0B927F0704706F13003A10010
:1059900001F4FE715C182046FFF74BFB00F07041EC
:1059A00039432046FFF754FB0123F37002E0022540
:1059B00000E002252846BDE8F087F8B50668012911
:1059C00053D973698B4252D90C463378022B2BD0B2
:1059D000032B39D0012B01D0012047E001EB510509
:1059E000316A01EB55213046FFF788FD002840D190
:1059F0006F1CC5F30805354495F83050316A01EB4A
:105A000057213046FFF77AFDB0BBC7F30803334494
:105A100093F8300045EA002014F0010F01D000098E
:105A200024E0C0F30B0021E0316A01EB1421304681
:105A3000FFF764FD18BB06F13000610001F4FF714F
:105A40000844FFF7F1FA11E0316A01EBD411304656
:105A5000FFF754FDB0B93036A10001F4FE703044B8
:105A6000FFF7E7FA20F0704000E00120F8BD0120C8
:105A7000FCE74FF0FF30F9E74FF0FF30F6E74FF06B
:105A8000FF30F3E74FF0FF30F0E72DE9F041076812
:105A9000B1F5001F3BD206460D4611F01F0F39D15C
:105AA000716184681CB93B78022B00D97C6A94B977
:105AB0003B89B3EB551F2FD97B6AF361B461F3695E
:105AC00093B303EB5523F3613037C5F308053D4429
:105AD000356200201CE0B7F80A804FEA48284545A7
