:020000040800F2
:10000000000001209D4F010865FD000869FD000802
:100010006DFD000871FD000875FD0008000000007E
:1000200000000000000000000000000079FD000852
:100030007DFD00080000000081FD000885FD00082E
:10004000ED4F0108ED4F0108ED4F0108ED4F01089C
:10005000ED4F0108ED4F0108ED4F0108ED4F01088C
:10006000ED4F0108ED4F0108ED4F0108ED4F01087C
:10007000ED4F0108ED4F0108ED4F010889FD000823
:10008000ED4F0108ED4F0108ED4F010800000000A1
:10009000000000000000000000000000ED4F01081B
:1000A000ED4F0108ED4F0108ED4F0108ED4F01083C
:1000B000ED4F0108ED4F0108ED4F0108ED4F01082C
:1000C000ED4F0108ED4F0108ED4F0108ED4F01081C
:1000D000ED4F0108ED4F0108ED4F01080000000051
:1000E000ED4F0108ED4F0108ED4F01080000000041
:1000F00000000000000000000000000095FD000866
:1001000000000000ED4F0108ED4F0108ED4F010820
:1001100000000000000000000000000000000000DF
:10012000ED4F0108ED4F0108C9FD0008ED4F010832
:10013000ED4F01080000000000000000000000007A
:10014000000000000000000000000000FDFD0008AD
:10015000ED4F0108ED4F0108ED4F0108ED4F01088B
:10016000ED4F0108ED4F0108000000000000000005
:10017000000000000000000000000000000000007F
:1001800000000000ED4F010800000000000000002A
:04019000ED4F010826
:1001A00010B5054C237833B9044B13B10448AFF3B1
:1001B00000800123237010BDD80200200000000041
:1001C000D064010808B5034B1BB103490348AFF3E2
:1001D000008008BD00000000DC020020D06401089F
:1001E00053B94AB9002908BF00281CBF4FF0FF319E
:1001F0004FF0FF3000F082B9ADF1080C6DE904CE8C
:1002000000F016F8DDF804E0DDE9022304B07047E1
:1002100080EA104080EA102080EA101046F696131B
:1002200000F00F0043FA00F000F00100704700BF3B
:100230002DE9F047089E04468846002B4BD18A42A0
:10024000154667D9B2FA82F24AB1C2F1200701FA23
:1002500002F320FA07F7954047EA030894404FEA73
:10026000154E230CB8FBFEF71FFA85FC0EFB178812
:1002700043EA084307FB0CF1994209D9EB1807F14F
:10028000FF3080F01B81994240F21881023F2B44DD
:100290005B1AA4B2B3FBFEF00EFB103344EA034436
:1002A00000FB0CFCA44509D92C1900F1FF3380F0A8
:1002B0000781A44540F2048102382C4440EA0740FB
:1002C000A4EB0C0400271EB1D4400023C6E9004370
:1002D0003946BDE8F0878B4209D9002E00F0EB804B
:1002E0000027C6E9000138463946BDE8F087B3FA71
:1002F00083F7002F47D18B4202D3824200F2FA806B
:10030000841A61EB030301209846002EE0D0C6E971
:100310000048DDE702B9FFDEB2FA82F2002A40F0BF
:100320008F80491B4FEA154E1FFA85F80127B1FB54
:10033000FEFC230C0EFB1C1143EA014308FB0CF1ED
:10034000994207D9EB180CF1FF3002D2994200F222
:10035000CD808446591AA3B2B1FBFEF00EFB1014F7
:1003600043EA044408FB00F8A04507D92C1900F122
:10037000FF3302D2A04500F2B6801846A4EB080471
:1003800040EA0C409FE7C7F1200CBB4022FA0CFE6C
:100390004EEA030E01FA07F420FA0CF521FA0CF3E9
:1003A0004FEA1E482543B3FBF8F92C0C08FB193320
:1003B0001FFA8EFA44EA034309FB0AF49C4202FA4C
:1003C00007F200FA07F10BD91EEB030309F1FF3026
:1003D00080F087809C4240F28480A9F10209734436
:1003E0001B1BADB2B3FBF8F008FB103345EA034426
:1003F00000FB0AFAA24508D91EEB040400F1FF3302
:100400006BD2A24569D90238744440EA0940A0FB86
:100410000289A4EB0A044C45C2464B4654D351D042
:10042000002E69D0B1EB0A0564EB030404FA0CFC5E
:10043000FD40FC404CEA0505C6E90054002747E7AB
:10044000C2F1200320FA03F7954001FA02F021FAE5
:1004500003F34FEA154E3843010CB3FBFEF71FFAC6
:1004600085F80EFB173341EA034107FB08F38B4283
:1004700004FA02F407D9691807F1FF3C2FD28B4226
:100480002DD9023F2944CB1A81B2B3FBFEF00EFBFB
:10049000103341EA034100FB08F38B4207D9691886
:1004A00000F1FF3C17D28B4215D902382944C91AF2
:1004B00040EA07473BE73746304609E70746E7E6A5
:1004C0001846FBE64145ABD2B8EB020A69EB0E02D7
:1004D00001381346A4E76046E9E7184695E7674602
:1004E000D1E781467CE702382C4447E7ACF1020CA7
:1004F0002B442FE7384608E73746E9E6704700BF48
:10050000034613F8012B002AFBD1181A0138704753
:1005100001F0FF01102A2BDB10F0070F08D010F8B4
:10052000013B013A8B422DD010F0070F42B3F6D1B8
:10053000F0B441EA012141EA014122F007047FF0D1
:1005400000070023F0E80256083C85EA010586EA28
:10055000010685FA47F5A3FA87F586FA47F6A5FA64
:1005600087F68EB9EED1F0BC01F0FF0102F0070270
:1005700032B110F8013B013A83EA010313B1F8D11B
:100580000020704701387047002D06BF35460338FC
:10059000073815F0010F07D1013015F4807F02BF35
:1005A000013015F4C03F0130F0BC0138704700BF86
:1005B00070B50E4B0E4D1B682A7806464FF47A70C4
:1005C000B0FBF2F0B3FBF0F000F0A6F808B90F2E84
:1005D00001D9012070BD0446024631464FF0FF307C
:1005E00000F058F86E60204670BD00BFCC000020BF
:1005F0000000002008B50B4B1A6842F400721A6024
:100600001A6842F480621A601A6842F480721A60B2
:10061000032000F02DF80020FFF7CAFF0FF0A0FA2A
:10062000002008BD003C0240034A044B11681B78BF
:100630000B441360704700BFAC0300200000002093
:10064000014B1868704700BFAC03002038B5044662
:10065000FFF7F6FF631C054602D0044B1B781C44D1
:10066000FFF7EEFF401BA042FAD338BD0000002088
:10067000074AD3684FF6FF010B40000243F0BF6307
:1006800000F4E06043F400330343D360704700BFDD
:1006900000ED00E0184BDB68C3F3022330B4C3F174
:1006A0000705042D03F1040428BF0425062C19D9DD
:1006B000033B4FF0FF349C4022EA04044FF0FF322A
:1006C000AA4021EA020101FA03F2224312010028A2
:1006D000D2B20ADB00F1604000F5614080F80023EF
:1006E00030BC704700242346E8E7044B00F00F00BD
:1006F00003441A7630BC704700ED00E0FCEC00E0EB
:1007000000F01F0101234009024A8B4042F82030CB
:10071000704700BF00E100E00138B0F1807F0ED2E9
:10072000084B10B4084C5860F02084F823000022D5
:10073000072110469A6019605DF8044B704701204C
:10074000704700BF10E000E000ED00E0F8B504469F
:10075000FFF776FF002C54D00222236884F835205E
:100760001A68002122F0010284F8341005461A604C
:1007700005E0FFF765FF401B05283BD823681A6892
:10078000D107F6D4D4E90126D4E903513243606994
:100790001F682A43D4E906650A430243216A3548A3
:1007A00032432A430A43616A3840042942EA00027C
:1007B00029D01A605A6922F007021143DAB22E4892
:1007C0005961103AA0FB021212092C4923F47F73DD
:1007D000895CE16523F00303032A88BF04333F22C9
:1007E0008A4001250021A36508469A60616584F866
:1007F0003550F8BD032320226265184684F8353051
:10080000F8BD0120F8BDD4E90B0101430A43A56AF4
:100810001A605A6945F0040122F0070211430028CA
:10082000CCD07EB1B6F5005F16D0022D03D9032DD2
:10083000C4D1C201C2D5012340226265184684F8A2
:100840003530F8BD012D03D0F3D3022DB6D1F0E73A
:10085000B0F1C07FB2D1EEE7032DAFD801A252F8BC
:1008600025F000BF370800083308000837080008E3
:10087000510800083F8010F0ABAAAAAAE86401085A
:10088000F0B583B00023876D0193C36D3D68654962
:1008900008229A402A4204460E6803D0016808687C
:1008A000400759D401229A402A4203D0216849695D
:1008B000080674D404229A402A4203D021680968A9
:1008C000890766D410229A402A4203D0216808681A
:1008D00000074BD420229A402A4214D0216808688D
:1008E000C00610D5BA6094F83520052A63D00B688D
:1008F00013F4802F0B687ED0190340F18980E36BDD
:100900000BB120469847636D23B3636DDA071AD5A0
:100910000523226884F835301368434923F0010326
:10092000A1FB06161360B60A02E01368DB0704D5C4
:10093000019B0133B3420193F7D90022012384F8CC
:10094000342084F83530E36C23B1204603B0BDE891
:10095000F040184703B0F0BD086820F004000860BC
:10096000BA60626D42F0010262659BE7BA600A6894
:1009700012F4802F0A6818D1D20503D40A6822F035
:1009800008020A60226C002AA4D020469047E36D3A
:10099000A0E7BA60626D42F00402626592E7BA6055
:1009A000626D42F00202626584E71103EAD5A26C2F
:1009B000002AEAD18EE70A68206C22F016020A604B
:1009C0004A6922F080024A6138B30A6822F00802BC
:1009D0000A603F22216D02FA03F300200122BB606E
:1009E00084F8340084F835200029B3D0204603B0C1
:1009F000BDE8F040084713F4807380D10A680120F5
:100A000022F010020A6084F8343084F8350076E76A
:100A1000636C002B7FF475AF75E7A26C002AD4D10C
:100A2000D7E700BFCC000020B5814E1B2DE9F04F69
:100A3000DFF8B4C1D1F8008083B08E4600254FF0B6
:100A4000010902E00135102D7ED009FA05F308EA0C
:100A500003018B42F6D1DEF8044024F0100ABAF10B
:100A6000020F74D06F000322D0F800B0BA40D24316
:100A700004F0030602EA0B0BBE400AF1FF3A46EA15
:100A80000B06BAF1010F066040F28280C668DEF8FC
:100A900008303240BB401343E700C360D2D54D4A13
:100AA00000230193536C43F480435364536C25F04B
:100AB000030606F1804603F4804306F59C36019355
:100AC00005F00302019BB76892000F23934027EAC9
:100AD0000303414FB84211D007F58067B8426AD08E
:100AE0003E4FB8426BD03E4FB8426DD03D4FB842FA
:100AF0000CBF0427072707FA02F21343B360DCF8A0
:100B00000030CA43E60354BF13400B43CCF8003017
:100B1000DCF80430A70354BF13400B43CCF8043077
:100B2000DCF80830E60254BF13400B43CCF8083021
:100B3000DCF80C30A40205F1010554BF13400B434F
:100B4000102DCCF80C3080D103B0BDE8F08FEF0849
:100B500000EB870705F007063A6AB6004FF00F0B67
:100B60000BFA06FB22EA0B0ADEF81020B24042EA3A
:100B70000A023A626F000322D0F800A0BA40D243C2
:100B800004F003060AEA020ABE4046EA0A060660C4
:100B9000866806EA020ADEF80C60BE4046EA0A06EB
:100BA0008660D0F804A0C4F300162AEA0303AE401E
:100BB0001E4346606AE709FA02F213439EE70227E2
:100BC00007FA02F2134399E7032707FA02F21343E5
:100BD00094E700BF003802400000024000080240D5
:100BE000000C024000100240003C014002B9090420
:100BF0008161704743695940416170472DE9F04771
:100C000090F8904284B0012C9DF830C09DF834E0FB
:100C1000BDF8388026D001EB810400EBC404054602
:100C2000D60902F07F004FF0010A85F890A284F8FF
:100C3000383084F8391084F83FE084F83CC084F8F8
:100C40003A0084F83B602868A4F84080CDE901E8C8
:100C5000CDF800C002F04AFB002385F8903204B0C2
:100C6000BDE8F087022004B0BDE8F08790F890322C
:100C7000012B0BD010B50123044680F89032006898
:100C800002F0F4FC002084F8900210BD02207047AE
:100C900000283AD02DE9F041032307468AB080F8B6
:100CA000913204460FF0E4FC386802F0AFF954F8D2
:100CB000106B0FCC6D460FC50FCC0FC594E8030029
:100CC00085E8030007F1040898E80E0030463E4628
:100CD00002F038F90121386802F0A0F956F810CB7B
:100CE0000FCE6D460FC50FCE0FC594E8030085E803
:100CF0000300604698E80E0002F0FEF90123002090
:100D000087F891320AB0BDE8F0810120704700BF3A
:100D1000F0B58C009DF814C0069FBDF81C606518E6
:100D200000EBC505BCF1000F14BF4FF0020E4FF0F1
:100D3000030E85F83B2085F83F3085F842E09DF8AA
:100D40002050032B1BD8DFE803F0024D3931BCF1F2
:100D5000010F14D19AB9631800EBC303002E58D1C8
:100D6000022283F851C0631800EBC30393F85CC000
:100D700083F84220BCF1020F01D083F83D50631884
:100D800000EBC303282283F83910002402FB010181
:100D9000C3E91176027C006883F85C40DC6483F868
:100DA0005D403831BDE8F04002F016BB631800EB3F
:100DB000C3034ABB93F8515015BB17E0CAB9621878
:100DC00000EBC20292F851C092F85CE0BCF1000F57
:100DD00018BF9C46BEF1020F82F842C0CFD082F805
:100DE0003D50CCE7631800EBC303002283F8422098
:100DF000C5E7631800EBC30393F85020002AF5D031
:100E0000022283F84220BAE793F85020002AF7D153
:100E1000ECE793F85120002A18BF0222A3E700BF95
:100E20002DE9F04F056885B00446284602F060F9C8
:100E3000012802D005B0BDE8F08F206802F054F917
:100E40000028F7D0206802F04FF910F4001F206846
:100E50001CBF4FF40013436102F046F910F4801FE9
:100E600020681CBF4FF48013436102F03DF910F07D
:100E7000806F20681CBF4FF08063436102F034F93B
:100E800010F0020F20681CBF0223436102F02CF90E
:100E9000860000F10981206802F026F9C001266869
:100EA00000F1C780304602F01FF9020700F11281FD
:100EB000206802F019F910F0007F20683ED102F09E
:100EC00013F9C306B6D52568AB6923F01003AB61EF
:100ED0002E6AC6F34342022A2BD1C6F30A18B8F190
:100EE000000F26D006F00F0606EB860704EBC707B7
:100EF000796CF1B14246284602F0E2F805F5A063AC
:100F000003EB4613786C1D69F96CBF4A40444144B9
:100F10002A407864F9645AB11A6822F0804242F09B
:100F200000421A6097F8503083F0010387F8503080
:100F30002568AB6943F01003AB617BE702F086FBE9
:100F4000A16883462068002900F0C08005F5A065EF
:100F500000264FF0010A38E05B0740F1C28004230D
:100F6000BB60FB6843F00203FB60BB689B0500F1BC
:100F7000F080BB68D80740F1C2802369002B40F0A5
:100F8000AA814FEA880303EB080104EBC1010020AA
:100F9000886581F85DA0C7F808A091F83F0010F0BF
:100FA000FD0F00F05081032800F03182434404EB30
:100FB000C30393F8502082F0010283F85020A16807
:100FC000206801368E4280F081800AFA06F313EA27
:100FD0000B0FF6D073015FFA86F85B594FEA48129F
:100FE00000F5A06902EB090713F4004FBB68B3D109
:100FF0005B077DD4BB6813F0200300F0B88008EBDA
:101000008809202304EBC909BB6099F83D30012B06
:10101000D7D1FB68042243F00203414689F85D20E2
:10102000FB6002F023FB022389F85C30A168206892
:10103000C7E7D6F840340293D6F840340393039BB5
:1010400023F02E030393029B9907374607D5029B93
:10105000DA0700F14E81039B43F002030393029BE6
:101060001B0715D5039B43F008030393029B580706
:1010700040F12581A169022900F07381E368032B07
:1010800004BF4EF66023C6F8043420460FF028FB58
:101090002668029B990603D5039B43F02003039324
:1010A000039BC7F84034FDE6D5F8403423F02E0307
:1010B000C5F8403420460FF017FB0121206802F0EC
:1010C000ABF820684FF000534361E5E64FF0007342
:1010D0004361F4E620460FF0FFFA206808234361DD
:1010E000E7E6BB68990640F191802023BB603CE7AE
:1010F0000423BB60FB6843F00203FB6061E7BB684D
:10110000990740F1AD804FEA880303EB080104EB37
:10111000C101D7F80CC091F85D002CF0020C012839
:10112000C7F80CC000F0ED80052800F0EA80062822
:1011300000F03E81082800F03B8191F85C0002231A
:10114000024641462046BB600FF0D2FAA1682068F3
:1011500037E7FB68206843F002034146FB6002F07A
:1011600085FA4FF40073BB60A168206829E7BA686C
:10117000520600F1E180BB6813F4007340F0FE807A
:10118000BA68D20700F12F81BB6813F0080340F062
:101190004E81BA68D20600F16481BB681B0600F17B
:1011A0008181BB6813F4806C40F08E81BB689A0724
:1011B0007FF507AF282303FB0843F96893F85D2008
:1011C00021F00201012AF96000F09381032A00F066
:1011D000AC81042A00F0AD81052A00F0A781062A1F
:1011E00000F09581082A00F09281282303FB084231
:1011F000022392F85C20BB60414620460FF078FA4B
:10120000A1682068DDE600BF0000F81FBB681B076F
:101210007AD4BB6859057FF5A8AEFB68009243F00D
:101220000203FB60414602F021FA08EB880310211B
:1012300004EBC303B96008204FF4806183F85D00BC
:10124000009AB96091E6FA682068009342F00202C1
:10125000FA60414602F00AFA1022BA60009BA5E645
:10126000BB6820681B0600F18B80BB68D90640F183
:1012700083804FEA880303EB080104EBC10191F876
:101280003F10032900F00181434404EBC3034FF0F6
:10129000030CA16883F85DC04FF0100CC7F808C0BC
:1012A00093F83F3013F0FD0F7FF48BAE52F8093006
:1012B00023F0804343F0004342F8093081E6D6F83A
:1012C000403423F02E03C6F840342668B36943F057
:1012D0000053B361DDE64FEA880303EB0801386988
:1012E00004EBC101C0F3120C886CA0EB0C00C864C5
:1012F00049E6B36923F00053B36120460FF0F0F9DB
:10130000A9E681F85C001AE7FB68009208EB880107
:1013100004EBC10143F00203FB604FF0050C4FF0FA
:10132000100E082381F85DC0C7F808E04146BB6095
:1013300002F09CF9009A18E608EB8802F96804EBC1
:10134000C20241F0020C9365042382F85D304146ED
:10135000C7F80CC002F08AF94023BB60A16820687E
:101360002FE6029B206803F4C023B3F5802F18BF3B
:10137000012101F051FF88E6A16822E6FB68EAE658
:1013800008EB880304EBC303F9689A6D41F0020C83
:1013900001324FF0060EC7F80CC041469A6583F83B
:1013A0005DE002F063F98023BB60A168206808E675
:1013B00003EB080104EBC101896D03294AD82820F9
:1013C00000FB084001318165022052F809104344B6
:1013D00004EBC30C21F0804343F000438CF85C0025
:1013E00042F80930ABE6FA6808EB880904EBC90952
:1013F00042F00202C9F858304146FA6002F036F96C
:10140000C7F808A0A168206889F85DA0D9E552F85E
:101410000900009340F0005042F8090081F85CA0F8
:101420000122414620460FF063F9009BBEE50823E8
:10143000BB60FB6843F002034146FB6008EB880891
:1014400002F014F904EBC803052283F85D20A168BB
:101450002068B6E5282101FB0841002088650420AA
:10146000B3E7FA68282101FB084942F00202C9F8F3
:1014700058304146FA6002F0F9F80322102389F847
:101480005D20A1682068BB609BE5F96841F002011E
:10149000F9604146CDE9002302F0E8F82068DDE973
:1014A0000023F1E6FB6843F002034146FB6002F0D3
:1014B000DDF8282303FB08480622802388F85D20F6
:1014C000A1682068BB607CE5FB6843F002034146ED
:1014D000FB6002F0CBF8282303FB084810214FF4EF
:1014E00080620823B9602068BA60A16888F85D301E
:1014F00067E593F83F1083F85C2002297FF475AE0E
:1015000093F8512082F0010283F851206DE62823E0
:1015100003FB08439A6D511C032A996505D90021E4
:101520000422996583F85C205FE6022283F85C2040
:101530005BE6022283F83DC083F85C2055E600BFDD
:1015400038B590F89032012B0ED00446012580F872
:101550009052006801F052FD2946206801F094FE87
:10156000002084F8900238BD022038BD90F89032F7
:10157000012B0BD010B50123044680F8903200688F
:1015800002F090F9002084F8900210BD022070470C
:10159000006801F05FBE00BF01EB810100EBC101FB
:1015A00091F85C00704700BF006801F099BE00BF71
:1015B000006801F08BBE00BF002800F032812DE9E9
:1015C000F0410368DD0782B004462FD5AC498A6834
:1015D00002F00C02042A00F0EA808A6802F00C0291
:1015E000082A00F0E0806368B3F5803F00F0E980EE
:1015F000B3F5A02F00F05481A14D2A6822F4803267
:101600002A602A6822F480222A60002B40F0DE80C3
:10161000FFF716F8064605E0FFF712F8801B64286E
:1016200000F2F2802B689B03F6D423689F0775D4E1
:101630001A0715D56369002B00F0A580914B904DDA
:1016400001221A60FEF7FCFF064605E0FEF7F8FFF0
:10165000801B022800F2D8806B6F9B07F6D52368A9
:1016600058073BD5864A136C13F0805340F0DB805B
:101670000193136C43F080531364136C03F0805395
:101680000193019B0126804D2A68D10540F1AC8071
:10169000A368012B00F0C980052B00F00B81784D69
:1016A0002A6F22F001022A672A6F22F004022A67B9
:1016B000002B40F0BF80FEF7C3FF41F28837804621
:1016C00006E0FEF7BDFFA0EB0800B84200F29C80E8
:1016D0002B6F9807F5D4002E40F0DC80A269CAB1C8
:1016E000674DA96801F00C01082948D0022A674A11
:1016F0004FF00001116000F0E780FEF7A1FF2C46DB
:10170000054604E0FEF79CFF401B02287CD82368B6
:101710009B01F7D4002002B0BDE8F081584A9168DF
:1017200011F00C0F24D0916801F00C0108291CD095
:10173000E368002B00F09280554B514D01221A6056
:10174000FEF77EFF064604E0FEF77AFF801B0228C4
:101750005AD82B689807F7D52B68226923F0F8032D
:1017600043EAC2032B60236862E752685602DFD463
:10177000434A126895074BD5E268012A48D00120F8
:1017800002B0BDE8F0813F4A3D4D1360FEF758FFBF
:10179000064604E0FEF754FF801B022834D86B6F26
:1017A0009F07F7D45BE74A6850027FF51CAF344AC5
:1017B000126891037FF53AAF6268002A7FF436AF72
:1017C000DDE72F4A136843F480331360FEF738FFD8
:1017D0002B4D064604E0FEF733FF801B642813D828
:1017E0002B689A03F7D520E72A6842F480722A60B2
:1017F000FEF726FF07462B68DA053FF549AFFEF7EF
:101800001FFFC01B0228F6D9032002B0BDE8F081FB
:101810001B4920690A6822F0F80242EAC0020A6005
:1018200006E70120704700262DE7154A136F43F0A5
:1018300001031367FEF704FF114D804641F288371C
:1018400005E0FEF7FDFEA0EB0800B842DCD82B6FE8
:101850009B07F6D5002E3FF441AF1BE00C4A084D24
:101860001360FEF7EDFE064604E0FEF7E9FE801B7E
:101870000228C9D82B689907F7D42368D8E600BF97
:1018800000380240800E474200700040600047422E
:1018900000004742234A136C23F0805313641DE772
:1018A000204B1A6842F480221A601A6842F480328F
:1018B0001A608BE71B4B1A6F42F004021A671A6F0B
:1018C00042F001021A67B5E7FEF7BAFE064604E0E9
:1018D000FEF7B6FE801B022896D82B689901F7D434
:1018E000D4E90736D4E90902E16A0E4C334343EAEE
:1018F0008013520843EA0163013A0B4943EA024369
:1019000001226B600A60FEF79BFE054605E0FEF7CC
:1019100097FE401B02283FF677AF23689A01F6D561
:10192000F8E600BF0038024060004742174908B59A
:101930008B6803F00C03042B1BD0082B17D14A68CB
:101940004B6813F4800302F03F0214D14968104839
:10195000C1F38811A1FB0001FEF742FC0B4B5B6851
:10196000C3F3014301335B00B0FBF3F008BD08484B
:1019700008BD084808BD4B680648C3F38813A3FB9D
:1019800000010023FEF72CFCE8E700BF003802400E
:101990000024F40040787D0160B1484A136803F0E8
:1019A0000F038B4208D2CBB21370136803F00F03FE
:1019B0008B4201D00120704703682DE9F0419D075B
:1019C00014D55C0704D53E4CA26842F4E052A260F4
:1019D0001A0704D53A4CA26842F46042A260384C1F
:1019E0008568A26822F0F0022A43A260DF0704465D
:1019F0000D4622D54268012A56D0931E012B304B4A
:101A00001B6858D9990725D52D4EB36823F00303D9
:101A10001343B360FEF714FE41F28837804605E0B9
:101A2000FEF70EFEA0EB0800B84242D8B368626829
:101A300003F00C03B3EB820FF2D1204A136803F0DA
:101A40000F03AB4209D9EBB21370136803F00F0315
:101A5000AB4202D00120BDE8F08123685A0706D5C9
:101A60001749E0688A6822F4E05202438A601B0743
:101A700011D4FFF75BFF124B12499B68124AC3F364
:101A80000313CB5C20FA03F300201360FEF790FDF4
:101A90000020BDE8F0810A4A2169936823F460437D
:101AA00043EAC1039360E4E7054B1B689E03ABD494
:101AB000D0E70320EDE79801A6D4CBE7003C024035
:101AC000003802406C4C0208CC000020014B186822
:101AD000704700BFCC000020044B054A9B680549B5
:101AE000C3F382230868D35CD840704700380240B3
:101AF0007C4C0208CC000020044B054A9B68054939
:101B0000C3F342330868D35CD840704700380240C2
:101B10007C4C0208CC000020F0B50446006810F0B0
:101B2000050F83B00AD1850742D410F0080003D016
:101B3000484B227C1A60002003B0F0BD464B474D55
:101B400000221A60FEF77CFD064604E0FEF778FDF1
:101B5000801B022829D82B681B01F7D4D4E9011374
:101B60003D4A3E4E1B0743EA81130121C5F88430EC
:101B70001160FEF765FD054604E0FEF761FD401BC0
:101B8000022812D833681F01F7D52068CBE70D462D
:101B9000FEF756FD41F2883607462B6F9B073AD475
:101BA000FEF74EFDC01BB042F7D9032003B0F0BDD5
:101BB0002A4B2B4D002201921A6C42F080521A647B
:101BC0001B6C03F080530193019B2B6843F48073DB
:101BD0002B60FEF735FD064604E0FEF731FD801B65
:101BE0000228E2D82B68D905F7D51C49E3680A6FAB
:101BF00012F4407203F4407010D082420ED00B6F8A
:101C0000184A23F4407301250020156010600B670B
:101C10000B6FDA07BBD4E36803F44070B0F5407F84
:101C20000CD00E498A6822F4F8128A600B4A116FB0
:101C3000C3F30B030B431367206876E707488268FA
:101C400023F0704122F4F81221F440710A438260BB
:101C5000ECE700BFE011474268004742003802400D
:101C600000700040400E4742002868D038B5437FDE
:101C7000044603F0FF02002B45D0236853220220C4
:101C8000CA21607759625A62DA68550629D599687F
:101C90006268D4E9045021F4E00121F04001996028
:101CA00099682A4302430A43E1689A6019611A69F4
:101CB000A16842EA01421A61DA6822F08002DA6021
:101CC0009A68910623D5196CA06921F480211964C2
:101CD0001A6CFF25024301211A6400205D626177BE
:101CE00038BD4FF0FF32DA60FEF7AAFC054605E08A
:101CF000FEF7A6FC401BB0F57A7F19D82368DA6896
:101D00005006F5D5C3E702770DF046FFB5E7DA6870
:101D100022F0A002DA60FEF793FC05462368DA6839
:101D20009206D0D4FEF78CFC401BB0F57A7FF5D933
:101D30002268FF21042351620120637738BD01200E
:101D4000704700BF037F012B00F096802DE9F04122
:101D500002230E4601210177054643770168002AD8
:101D600036D08C6870783278B37814F0400414BFA1
:101D7000F478F4704FEA002040EA024018BF2404CF
:101D800018430443CA2253234A624B62CB685A0663
:101D900057D504F07F3424F0FE440C608A68D6E9FD
:101DA000033022F480228A608A68034313438B60E5
:101DB000CB6823F08003CB608B689B065ED5FF2049
:101DC00000230122486218466A772B77BDE8F0812C
:101DD0008F68307817F0400716BFF778F7703F0428
:101DE00009284FF0000407D90A38C0B2092804F1C5
:101DF0000104F9D82401E4B273782043092B4FEA97
:101E0000004457D900200A3BDBB2092B00F1010046
:101E1000F9D800015FFA80FCB07843EA0C03092886
:101E20004FEA032344D90A38C0B2092802F101025B
:101E3000F9D81201D2B23C432343104343EA0004D1
:101E4000A0E74FF0FF33CB60FEF7FAFB07462968A7
:101E5000CB6813F040089CD1FEF7F2FBC01BB0F535
:101E60007A7FF4D92A68FF2104235162012085F882
:101E70001C806B77BDE8F08102207047CB6823F0AF
:101E8000A003CB60FEF7DCFB06462968CC6814F0A3
:101E9000200494D1FEF7D4FB801BB0F57A7FF4D9EF
:101EA0002A68FF210423516201202C776B778DE78C
:101EB0000022C0E74FF0000CAEE700BF036870B42B
:101EC0009D6A1C691B684D6003F07F3323F0FE435D
:101ED000180CC4F30E0400F0400600F03F058C60BF
:101EE000C3F30624DBB2CE700D704C708B70BAB9A0
:101EF000220902EB82062D091A0905EB850500F07F
:101F00000F0004F00F0402EB820203F00F0300EB5A
:101F1000450004EB460403EB420308704C708B70E1
:101F2000002070BC704700BF037F012B7DD02DE9DE
:101F3000F04105460223012028776B770E78CB7895
:101F400048788C7876030AB346EA03431C4344EA94
:101F500000242B68CA21532259625A62DA6851065A
:101F600048D524F07F4424F0C0045C60DA6822F095
:101F70008002DA609A68920659D5FF20002201217A
:101F80005862104669772A77BDE8F081C70604D504
:101F900020F010000A30C0B24870092B4FF0000149
:101FA00007D90A3BDBB2092B01F10101F9D809017C
:101FB000C9B20B4309284FEA03434FF0000107D988
:101FC0000A38C0B2092801F10101F9D80901C9B2E2
:101FD0000843092C4FEA002143D90A3CE4B2092CFA
:101FE00002F10102F9D81201D0B21E433143044379
:101FF0000C43AEE74FF0FF32DA60FEF721FB80467C
:102000002B68DF6817F04007ABD1FEF719FBA0EB98
:102010000800B0F57A7FF3D92A68FF2104235162C2
:1020200001202F776B77BDE8F08102207047DA68D6
:1020300022F0A002DA60FEF703FB06462B68DC689C
:1020400014F0200499D1FEF7FBFA801BB0F57A7FDB
:10205000F4D92A68FF210423516201202C776B7781
:1020600092E70020C1E700BF03685B6823F07F436D
:1020700023F0C00370B4C3F30724C3F34236180C33
:1020800004F01F05DBB20E704D70C8708B70BAB9CA
:102090002D09AA00060915441A0904F00F0406EBDD
:1020A000860600F00F0002EB820203F00F0304EB40
:1020B000450400EB460003EB42034C70C8708B7084
:1020C000002070BC704700BF00283BD090F8512022
:1020D000002370B502F0FF010446836262B3184624
:1020E000D4E90135D4E903212B4313436269E5693F
:1020F000266A0B431343A26921682B43022584F807
:102100005150334302F400750E682B43120C656A7C
:1021100002F0040203432A4326F040060E600B60DF
:102120004A60CB69002223F400630125CB6110468D
:10213000626584F8515070BD80F850100DF038FD84
:10214000A06ACDE7012070472DE9F0410E4690F8D6
:102150005010012982B079D004461F46012380F82F
:1021600050301546FEF76CFA94F851106368C9B206
:102170000129804611D0B3F5827F09D002200122C7
:10218000002384F8512084F8503002B0BDE8F0817B
:10219000A268002AF2D10429F0D1002E5AD0002DD5
:1021A00058D0002F56D094F85120012A04BF0522A0
:1021B00084F85120002122686165E787E78610686E
:1021C000A563C4E910114106A7872663A78603D437
:1021D000116841F040011160E168B1F5006F60D015
:1021E000002B00F0BE80E38E9BB2012B00F0B98083
:1021F000089B013340F0BD8022680121E38E9BB231
:102200001BB9E38F9BB2002B36D071B1E38E9BB22A
:102210005BB193689F0708D533781373E38E226808
:10222000013B9BB20136E3860021E38F9BB2002B7A
:10223000E4D09368D807E1D5D3682B70E38F226888
:10224000013B9BB20135E3870121D7E7022002B0B1
:10225000BDE8F081012092E7916888075CD4089A74
:10226000002A00F0F280FEF7EBF9089BA0EB0800D3
:10227000834240F2E9802268089901311346EBD18C
:1022800093689D07FCD593681906FCD4A0680028C4
:1022900040F0D8800190D368019393680193019B2B
:1022A0006DE7002B00F09680E38E9BB2012B00F0CF
:1022B0009180089B013340F095800121E38E9BB211
:1022C0001BB9E38F9BB2002BD6D069B1E38E9BB2D2
:1022D00053B193689F0707D536F8023BD360E38E6E
:1022E000013B9BB2E3860021E38F9BB2002BE5D03C
:1022F0009368D807E2D5D36825F8023BE38F013B0A
:102300009BB2E3870121D9E7FEF79AF9089B22687F
:10231000A0EB0800834205D993681B06B6D5089B3D
:10232000002BF1D15368616823F0E003B1F5827F9F
:10233000536000F0AF80A36AB3F5005F08D1136863
:102340004DF6FF710B401360136843F400531360A4
:10235000012084F85100636D202213436365626598
:102360000DE716F8013B1373E38E013B9BB2E38646
:102370003EE70127E38E9BB223B9E38F9BB2002B8C
:102380003FF479AF77B1E38E9BB25BB123689A6873
:10239000910707D532781A73E38E013B9BB2013661
:1023A000E3860027E38F9BB25BB123689A68D2076C
:1023B00007D5DB682B70E38F013B9BB20135E387C8
:1023C0000127FEF73DF9089BA0EB08008342D1D816
:1023D0000320D4E636F8023BD360E38E013B9BB288
:1023E000E38666E70127E38E9BB223B9E38F9BB2B6
:1023F000002B3FF440AF77B1E38E9BB25BB1236813
:102400009A68910707D536F8022BDA60E38E013B14
:102410009BB2E3860027E38F9BB25BB123689A6887
:10242000D20707D5DB6825F8023BE38F013B9BB25F
:10243000E3870127FEF704F9089BA0EB080083421D
:10244000D1D8C5E700209AE623685A68616822F06F
:10245000E002B1F5827F5A6010D0A26AB2F5005F47
:1024600008D11A684DF6FF710A401A601A6842F4E2
:1024700000521A60012384F85130A9E7A268B2F52E
:10248000004F02D0B2F5806FE7D11A6822F0400207
:102490001A60E2E7A368B3F5004F03D0B3F5806F8D
:1024A0007FF449AF136823F04003136043E700BF94
:1024B000002842D090F8393070B503F0FF0204468E
:1024C0002BB323682548E1686568022284F8392027
:1024D00083421A6833D0B3F1804F1DD0A0F57C4001
:1024E000834219D000F58060834215D000F58060EA
:1024F000834211D000F59A30834211D000F58060FC
:1025000083420DD000F5806083420DD108E080F851
:1025100038200DF0D7FBD4E7A06822F07002024308
:10252000206922F4407202431A60D9629D6201223E
:102530005A61002084F8392070BD01207047A668D8
:10254000206922F07002324322F4407202431A6082
:10255000D9629D6262691A63E9E700BF0000014029
:102560000168022210B480F839200A680124034669
:1025700022430A60002083F839405DF8044B70471D
:1025800090F83830012B67D002220368F0B480F84D
:1025900039209A680C6822F47F4222F077020125E4
:1025A000402C80F838509A6000F0938018D9702C35
:1025B0007FD02BD9B4F5805F76D0B4F5005F1CD105
:1025C000D1E90152CC6899682A4342EA042221F4F5
:1025D0007F410A439A609A6842F480429A600CE014
:1025E000102C42D02FD9202C38D0302C05D19A680D
:1025F00022F0700242F037029A600023012280F834
:10260000392080F83830F0BC18467047502C33D051
:10261000602CF2D11C6A4D68CE6824F010041C6254
:1026200099691A6A21F4704122F0A00242EA051267
:1026300041EA063199611A629A6822F0700242F00A
:1026400067029A60D9E7002CD7D19A6822F070020D
:1026500042F007029A60D0E7022070479A6822F0A1
:10266000700242F027029A60C7E79A6822F070026F
:1026700042F017029A60C0E71D6A1E6A4C68CF6874
:1026800026F001061E629A6925F00A0122F0F00286
:1026900042EA071221439A6119629A6822F0700295
:1026A00042F057029A60A8E79A6822F007029A60FF
:1026B000A3E7D1E90152CC6899682A4342EA04228F
:1026C00021F47F410A439A609A6842F077029A6047
:1026D00093E71D6A1E6A4C68CF6826F001061E62E9
:1026E0009A6925F00A0122F0F00242EA071221431A
:1026F0009A6119629A6822F0700242F047029A6069
:102700007BE700BF90F83830012B1ED00246022034
:10271000136870B482F839005C6824F07004D1E961
:1027200000565C60586828435860986820F0800024
:10273000986099680024012531439960204682F809
:10274000395082F8384070BC70470220704700BF93
:10275000002800F004812DE9F84390F83930044650
:1027600003F0FF02002B00F0F58023682669242285
:1027700084F83920D86820F40050D4E90225D860C4
:102780001969E06921F4405129431961D9686569E3
:10279000324321F416412A4321F00C0102430A433B
:1027A000DA605A69A16922F440720A43B0F5004F19
:1027B0005A61AA4A71D0934200F0D38002F5806238
:1027C000934200F0CE80FFF787F9A54F636800EBD6
:1027D000800000EB80009B00B0FBF3F3A7FB03231A
:1027E0005B091D01FFF778F9666800EB800000EBDC
:1027F0008000B600B0FBF6F6FFF76EF9636800EBF9
:10280000800000EB80009B00B0FBF3F3A7FB0323E9
:102810005B094FF0640909FB13631B013233A7FB0B
:1028200003235B0903F0F006FFF756F9626800EB3B
:10283000800000EB80009300B0FBF3F8FFF74CF949
:10284000D4E9002100EB80008B0000EB8000B0FB9E
:10285000F3F3A7FB03135B0909FB13831B0132335B
:10286000A7FB0313C3F3431333432B449360136950
:1028700023F490431361536923F02A035361D3680F
:102880000025202143F40053D3602846E56384F8F3
:10289000391084F83A10BDE8F883934200F09F8025
:1028A00002F58062934200F09A80FFF715F96C4FB1
:1028B000636800EB800000EB80005B00B0FBF3F38B
:1028C000A7FB03235B091E01FFF706F9656800EB10
:1028D000800000EB80006D00B0FBF5F5FFF7FCF821
:1028E000636800EB800000EB80005B00B0FBF3F35B
:1028F000A7FB03235B094FF0640909FB1353DB00BB
:102900003233A7FB03231B0903F4F875FFF7E4F840
:10291000626800EB800000EB80005300B0FBF3F82E
:10292000FFF7DAF8D4E9002100EB80004B0000EB60
:102930008000B0FBF3F3A7FB03135B0909FB1383D0
:10294000DB003233A7FB0313C3F3421333442B449E
:1029500093608CE780F838200DF0CCF905E7012072
:102960007047FFF7C9F83E4F636800EB800000EB4B
:1029700080009B00B0FBF3F3A7FB03235B091D0161
:10298000FFF7BAF8666800EB800000EB8000B60045
:10299000B0FBF6F6FFF7B0F8636800EB800000EBE1
:1029A00080009B00B0FBF3F3A7FB03234FF0640907
:1029B0005B0909FB13631B013233A7FB03235B098C
:1029C00003F0F006FFF798F8626800EB80009300D0
:1029D00000EB8000B0FBF3F8FFF78EF830E7FFF76D
:1029E0008BF81F4F636800EB800000EB80005B00FA
:1029F000B0FBF3F3A7FB03235B091E01FFF77CF891
:102A0000656800EB800000EB80006D00B0FBF5F521
:102A1000FFF772F8636800EB800000EB80005B005A
:102A2000B0FBF3F3A7FB03234FF064095B0909FB39
:102A30001353DB003233A7FB03231B0903F4F875A0
:102A4000FFF75AF8626800EB8000530000EB80004B
:102A5000B0FBF3F8FFF750F864E700BF0010014047
:102A60001F85EB51F0B50E4690F83910202983B040
:102A70002DD1002E2ED0019262B31F4690F838302F
:102A8000012B044623D00023C3630121212380F8B6
:102A9000381080F83930FDF7D3FD019AA284E28422
:102AA00022680546E38C9BB2002B39D0E08CA168EC
:102AB000013880B2B1F5805FE08419D0781C3BD139
:102AC00010680106FCD5337853600136EAE702202E
:102AD00003B0F0BD012003B0F0BD13681B060CD499
:102AE000002F33D0FDF7ACFD401B874222682DD369
:102AF000781CF2D110680106FCD533882169C3F334
:102B0000080353600029E0D10236CBE713685B0667
:102B10000BD4DFB1FDF794FD401B8742226815D32B
:102B2000781CF3D113685906FCD52023002084F8C3
:102B3000393084F83800CBE713681B06C3D42FB1B3
:102B4000FDF77EFD401B87422268B7D2D36823F48D
:102B5000D073D3605369202123F0010300250320A3
:102B6000536184F8391084F8385084F83A1003B06F
:102B7000F0BD00BF2DE9F04F0C6894FAA4F24E6846
:102B8000B2FA82F234FA02F306F1FF3E79D04FF046
:102B9000010C03274FF00F0803E0013234FA02F36F
:102BA0006FD00CFA02F32340F7D0D0F8009093FADC
:102BB000A3FABAFA8AFA93FAA3F5B5FA85F54FEAB9
:102BC0004A0A6D0007FA0AFA06FA05F529EA0A091F
:102BD00049EA0505BEF1010F056016D8856893FA2C
:102BE000A3F9B9FA89F993FAA3FA4FEA490907FA5E
:102BF00009F925EA0909BAFA8AFA8D684FEA4A0AF8
:102C000005FA0AF549EA05058560C56893FAA3F94E
:102C1000B9FA89F993FAA3FA4FEA490907FA09F9C7
:102C200025EA0909BAFA8AFA0D694FEA4A0A05FA49
:102C30000AF549EA0505022EC560AED193FAA3FA5A
:102C4000BAFA8AFABAF1070F4FEA1325D1F81490AD
:102C500025DC056A93FAA3FABAFA8AFA93FAA3F37F
:102C6000B3FA83F34FEA8A0A9B0008FA0AFA09FAD0
:102C700003F325EA0A052B430132036234FA02F317
:102C80008FD1BEF1010F07D8CA68436802FB04F276
:102C900023EA0404144344600120BDE8F08FD0F817
:102CA00024A095FAA5FBBBFA8BFB95FAA5F3B3FA22
:102CB00083F34FEA8B0B9B0008FA0BFB09FA03F333
:102CC0002AEA0B0A4AEA0303436266E770B4214C1E
:102CD00003688D680A88A0422DD0B0F1804F18D0CB
:102CE000A4F57C44A04214D004F58064A04210D026
:102CF00004F58064A0420CD004F59A34A0420CD0B4
:102D000004F58064A04208D004F58064A04208D194
:102D100003E04C6823F070032343C96823F4407335
:102D20000B430360C5628262436943F00103436160
:102D300070BC012070474E68CC6823F070033343A9
:102D400023F4407323430360C56282620B7C0363F8
:102D5000EAE700BF000001401029F0B403466ED03E
:102D600048D9B1F5807F24D0B1F5805F64D1006A85
:102D70001469654D20F48050D2E900671862196A21
:102D8000586821F4005141EA0431DC6921F4805192
:102D900024F4E644AB4241EA073144EA062400F059
:102DA000AD80D2685860DC6101201A641962F0BC01
:102DB0007047006A1469544D20F48070D2E90067AE
:102DC0001862196A586821F4007141EA0421DC692B
:102DD00021F4807124F07304AB4241EA072144EAF4
:102DE000060476D0D2685860DC610120DA6319628B
:102DF000F0BC704701291FD1006A1469424D20F0D0
:102E00000100D2E900671862196A586821F00201CE
:102E100021439C6921F0010124F07304AB4241EA93
:102E2000070144EA060440D0D26858609C61012042
:102E30005A631962F0BC70470020F0BC7047006A0A
:102E40001469314D20F01000D2E900671862196A48
:102E5000586821F0200141EA04119C6921F0100119
:102E600024F4E644AB4241EA071144EA062407D0C1
:102E7000D26858609C6101209A631962F0BC704767
:102E8000D2E9056521F0800120F4806041EA8611D5
:102E900040EA85009668D56921F0400120F4006081
:102EA00041EA861140EAC500E2E7D2E9056521F072
:102EB000080120F4807041EA860128439668D569AC
:102EC00021F0040120F4007041EA860140EA450047
:102ED000AAE7D2E9056521F4006120F4805041EAB7
:102EE000862140EA05109668D56921F4806120F4B6
:102EF000005041EA862140EA451073E7956920F4C5
:102F0000804040EA85104CE70000014030B4D1E930
:102F100001450B7B0A682B4323F48063234323F48E
:102F200000631343CA8923F48053D1E90441134356
:102F300023F40053234323F440430B43436430BC46
:102F40000120704784B030B4089D03AC012D84E8A3
:102F50000E0031D1836B0F9A23F480338363C368EF
:102F600023F4840323F04003C360C368012A23F4DD
:102F70004013C3603AD0204B01E0013B0DD0026901
:102F8000002AFADA02691C4B42F00102026101E0F8
:102F9000013B02D00269D107FAD4069B012B07D16D
:102FA000836843F006038360836843F020038360F3
:102FB00030BC002004B07047C2680F4B42F04002A2
:102FC000C26001E0013B0DD00269002AFADA026911
:102FD000094B42F00102026101E0013B02D00269AB
:102FE000D207FAD44FF480338363D6E7C36843F43F
:102FF0008013C360BFE700BF400D030002460020FE
:10300000936843F001039360704700BF02460020BD
:10301000936823F001039360704700BF08B5C3684D
:10302000012923F0C043C36009D019B9C36843F034
:103030008043C3603220FDF709FB002008BDC36850
:1030400043F00053C3603220FDF700FB002008BDB1
:10305000890141F020010161054A01E0013A05D0F2
:10306000036913F02003F9D1184670470320704715
:10307000400D030010230361054A01E0013A05D029
:10308000036913F01003F9D1184670470320704705
:10309000400D030010B49DF804406CB903339B0845
:1030A0000AD000F5805000EB023201EB830351F8A7
:1030B000040B10608B42FAD100205DF8044B70477E
:1030C000033292080DD010B401EB820200F5805457
:1030D0000846236840F8043B8242FAD15DF8044B6D
:1030E00070470846704700BF4269806910407047CA
:1030F000406900F00100704784B030B504460020FC
:10310000C4F8000EA06B83B020F48020A06307AD4C
:10311000A06B85E80E0020F40020A063A36BDDE91E
:10312000081243F40013A363032AD4F8003457D0E1
:1031300023F00403C4F800344FF484632361304B5C
:1031400001E0013B02D022699006FAD410232361EA
:103150002B4B01E0013B02D02269D206FAD461B1C7
:103160000022154604F5A0634FF0FF3001328A4279
:103170009860DD6003F12003F8D1D4F84034019366
:10318000019B23F02E030193019BDB0404D4019BDC
:1031900043F48053C4F84034C820019BFDF756FA2D
:1031A00000224FF0FF33B4F1A04FA26163611FD042
:1031B0004FF40071134A144B6162A262C4F80031EB
:1031C0000A9B1BB9A36943F01003A361A2690F4BCB
:1031D00000201343A36103B0BDE8304004B0704742
:1031E000B4F1A04FA4D043F00403C4F80034A3E723
:1031F0008021074A074B6162A262C4F80031DFE711
:10320000400D0300000200010003E000080020A3BD
:1032100080006000E0004000D0F8003423F0030399
:10322000C0F80034D0F8002401F00303134301294F
:10323000C0F8003400F5806006D0022904BF41F2D6
:1032400070734360002070474BF68033436000206A
:10325000704700BF10B5044682B0D4F840340193E3
:10326000019B23F02E030193019B43F48073C4F868
:1032700040340A20FDF7EAF9019B002023F4807313
:10328000C4F8403402B010BD82B0D0F8403401938D
:10329000019B23F02E030193019B13F4805F019B9C
:1032A00001D101290AD0DB0405D521B9019B23F402
:1032B0008053C0F84034002002B0704743F480537C
:1032C000C0F84034019B002002B0704782B0D0F8B3
:1032D000403401930198C0F3414002B0704700BFF1
:1032E00000F58060806880B2704700BF2DE9F04132
:1032F00000F5A06505EB41159DF81C609DF8187060
:10330000BDF820404FF0FF3CC5F808C04FFA82FCE2
:10331000032E13D8DFE806F00251024340F29D4E1F
:10332000BCF1000FC5F80CE040DBB0F1A04F05D0B8
:10333000D5F80CE04EF0600EC5F80CE09B05D2020B
:1033400003F0FE5302F4F042D0F818841A4301232C
:1033500003FA01F141EA0801C4F30A03C0F81814A2
:1033600013430CF4004CB404022F826943EA0C03AB
:1033700004F4402414BF00214FF4003123430B43D5
:1033800042F00072032E826100F5806E2B6003D143
:103390002B6843F000532B600020BDE8F08140F221
:1033A0009D6EBCF1000FC5F80CE0C7DAD5F80CE053
:1033B0004EF4807EC5F80CE0C0E740F2252EBCF14B
:1033C000000FC5F80CE0B9DAD5F80CE04EF4C07E79
:1033D000C5F80CE0B2E700BF80B58AB002AFF86074
:1033E000B9601346FB7100237B7700237B830023A6
:1033F000FB834FF480733B8300237B61FB68B3F155
:10340000A04F2AD0BB681B79002B26D1FB79002B5B
:103410000BD1BB685B79012B07D1BB685B78194680
:10342000F86800F005FA002309E1FB79012B14D1BB
:10343000BB685B785A01FB68134403F5A063DB6843
:10344000BA6852785101FA680A4402F5A06223F082
:103450006003D360BB6800225A71BB681B69002BF4
:1034600019D0BB681B69BA6812891344013BBA685A
:103470001289B3FBF2F3FB83FA8B3B8B9A420CD994
:103480003B8BFB83FB8BBA68128902FB03F31A4662
:10349000BB681A6101E00123FB83BB68DB78002B6A
:1034A00007D0FB8BBA68128902FB03F31A46BB688C
:1034B0001A61BB681B69C3F31202FB8BDB0419465C
:1034C000614B0B401A43BB689B7A5B0703F0C04318
:1034D000B96849784801F968014401F5A0611343CE
:1034E0000B61FB79002B0AD0BB68D968BB685B789D
:1034F0005A01FB68134403F5A0630A465A61FB684E
:1035000003F580639B6803F00103002B0CBF0123CC
:103510000023DBB27B77BB685B785A01FB681344FE
:1035200003F5A0631B68BA6852785101FA680A442F
:1035300002F5A06223F000531360BB685B785A0168
:10354000FB68134403F5A0631B687A7F520710469B
:10355000BA6852785101FA680A4402F5A06203433E
:103560001360BB685B785A01FB68134403F5A063E2
:103570001B687B617B6923F080437B617B6943F03F
:1035800000437B61BB685B785A01FB68134403F519
:10359000A0631A467B691360FB79002B4ED1BB6890
:1035A000DB78002B4AD1BB681B69002B46D0BB6877
:1035B000DB79032B30D801A252F823F0CD35000877
:1035C000F1350008CD350008F1350008BB681B69EE
:1035D00003339B087B837A8BFB68DB6A9BB29A423E
:1035E0001CD9FB689B6943F02002FB689A6115E0D7
:1035F000BB681B6903339B087B837A8BFB6803F5ED
:1036000080631B699BB29A420AD9FB689B6943F0AD
:103610008062FB689A6103E000BF02E000BF00E047
:1036200000BFBB68D968BB685A78BB681B6998B291
:10363000002300930346F868FFF72CFD002318468B
:103640002037BD4680BD00BF0000F81F80B483B0A6
:1036500000AF78607B6803F580635B699BB21846B6
:103660000C37BD465DF8047B704700BF80B485B061
:1036700000AF78600B46FB700023FB60FB785A01BB
:103680007B68134403F5A0631B689B0C03F00303E2
:10369000002B0BD0FB785A017B68134403F5A06321
:1036A0001B689B0C03F00303022B5CD1FB785A01CF
:1036B0007B68134403F5A0631B68FA7851017A68AC
:1036C0000A4402F5A06243F0804313607B68DB6A22
:1036D00003F47F03002B33D1FB785A017B6813443A
:1036E00003F5A0631B68FA7851017A680A4402F571
:1036F000A06223F000431360FB785A017B681344F7
:1037000003F5A0631B68FA7851017A680A4402F550
:10371000A06243F000431360FB680133FB60FB6869
:10372000B3F57A7F1DD8FB785A017B68134403F503
:10373000A0631B6803F00043B3F1004FECD06FE0CF
:10374000FB785A017B68134403F5A0631B68FA7881
:1037500051017A680A4402F5A06243F00043136005
:103760005EE000BF5CE0FB785A017B68134403F520
:10377000A0631B68FA7851017A680A4402F5A062D6
:1037800043F0804313607B6803F580631B699BB241
:10379000002B33D1FB785A017B68134403F5A063F7
:1037A0001B68FA7851017A680A4402F5A06223F096
:1037B00000431360FB785A017B68134403F5A06350
:1037C0001B68FA7851017A680A4402F5A06243F056
:1037D00000431360FB680133FB60FB68B3F57A7F3D
:1037E0001DD8FB785A017B68134403F5A0631B685E
:1037F00003F00043B3F1004FECD011E0FB785A0125
:103800007B68134403F5A0631B68FA7851017A685A
:103810000A4402F5A06243F00043136000E000BFD9
:10382000002318461437BD465DF8047B704700BF7F
:1038300080B485B000AF78600B46FB700123FB734A
:103840000023BB60FB7BDB041A46154B1340FA7860
:1038500051017A680A4402F5A06243F00043136103
:10386000FB785A017B68134403F5A0631B68BB60B7
:10387000BB6823F08043BB60BB6843F00043BB6080
:10388000FB785A017B68134403F5A0631A46BB68B2
:103890001360002318461437BD465DF8047B70475B
:1038A0000000F81F80B586B000AF786000233B6150
:1038B0007868FFF7ABFB10217868FFF7C9FB7868E1
:1038C000FFF7D8FB0023FB751FE0FB7D5A017B68E7
:1038D000134403F5A0631B68FB60FB6843F080435F
:1038E000FB60FB6823F00043FB60FB6823F40043AC
:1038F000FB60FB7D5A017B68134403F5A0631A4605
:10390000FB681360FB7D0133FB75FB7D0F2BDCD95E
:103910000023FB7534E0FB7D5A017B68134403F5FB
:10392000A0631B68FB60FB6843F08043FB60FB689F
:1039300043F00043FB60FB6823F40043FB60FB7D26
:103940005A017B68134403F5A0631A46FB681360B1
:103950003B6901333B613B69B3F57A7F0CD8FB7D52
:103960005A017B68134403F5A0631B6803F000430E
:10397000B3F1004FECD000E000BFFB7D0133FB75DD
:10398000FB7D0F2BC7D97B6803F580631A464FF088
:10399000FF3353617B684FF0FF325A617868FFF75D
:1039A0002DFB002318461837BD4680BDD0F8743370
:1039B000DB699A78062A08D1D0F8B823186A998B5F
:1039C000121A8A4224BF04229A700020704700BF56
:1039D00038B5D0F87433DC696178054649B9217887
:1039E00091B9D5F87433D86908B111F02DFB0020D6
:1039F00038BD01F0C1FE6178284601F017FF21783B
:103A0000002363700029ECD0284601F0B5FE217830
:103A1000284601F00BFF00232370E2E72DE9F04771
:103A2000D0F8741384B0FF2301220979044600F012
:103A3000BFFBFF2800F098800146204600F074FB91
:103A40003420D4F8746311F0F7FAF06194F81F335E
:103A50001A2202FB0343072293F843338270012B9F
:103A6000054600F09180022B57D14C4811F0BEFB67
:103A70000A2011F0D3FB4A4B2B6394F81F331A2210
:103A800002FB03424FF01A0892F84803A876B2F8F6
:103A90004A0392F84C232883092A98BF0A22AA8352
:103AA00008FB0342002192F84073A9706971002F4E
:103AB0003DD0022F28BF022700264FF0030908FB44
:103AC00003F306F1010A03EBCA032344204693F8EB
:103AD00040331A0619462ED4EB7001F053FE84468B
:103AE000288B94F81D1394F81C33EA780091CDE9E3
:103AF00001906146204685F800C001F02DFE0022AD
:103B0000297820460CF0A4FE5FFA8AFA574506F1A0
:103B100001060CD994F81F33D1E7224811F066FB57
:103B20000A2011F07BFB022004B0BDE8F0870020E2
:103B300004B0BDE8F0872B7101F024FE8446288B89
:103B400094F81D1394F81C332A790091CDE9019063
:103B50006146204685F801C001F0FEFD002269782B
:103B600020460CF075FECFE70F4811F03FFBD4F86C
:103B700074330E48196811F039FB0A2011F04EFB1E
:103B8000022004B0BDE8F087094811F02FFB0A209D
:103B900011F044FB074B2B636FE700BFF84E0208A0
:103BA0009D3F00080C4F0208AC4E0208B84E0208B8
:103BB000E04E0208B13E0008D0F8743370B5DD69FC
:103BC0006B7982B00446052B23D8DFE803F0372257
:103BD00026371603364B0022C0E90432114601F0A5
:103BE00099FC0646A8B901236B712046D4F8C4336A
:103BF00002219847304602B070BD002240F62123D2
:103C0000C0E90432114601F085FC002849D00328A0
:103C100047D00126304602B070BDEB8D00934FF4C3
:103C2000085200F58E73012101F0EAF80028F0D166
:103C30000126042330466B7102B070BD0923009346
:103C40004FF4045200F58E73012101F0D9F80028D9
:103C5000DFD194F81C3185F8263094F81D3185F8B1
:103C6000273094F81F2194F81E3103EB02232B8593
:103C700094F8203185F82A3094F8213185F82B30DA
:103C800094F8223185F82C3094F8241194F82331DB
:103C90000126022203EB01233046EB856A7102B054
:103CA00070BD0126052330466B7102B070BD00BFA8
:103CB000210B010070B49DF80C4042EA0126A2B22B
:103CC000194640F621140023468204828382C28270
:103CD00070BC01F01FBC00BF00230281C0E90013CB
:103CE00083727047F0B40446807A10BB0123A3723C
:103CF000FAB1E388A5889D4220D0561EB6B201369F
:103D000084460E440D4602E0A7889F4216D02768DD
:103D1000FB5C05F8013BE388278901339BB29F4296
:103D2000E38002D1A4F806C00023681AAE4280B234
:103D3000EAD10023A3721046F0BC70470023A3729F
:103D4000F0BC7047704700BFF8B5D0F87433DC6939
:103D5000A3780546062B44D8DFE803F045474343E4
:103D60008493040061780CF069FD012840F0908094
:103D700094F82430002B34D194F812C0BCF1000F19
:103D800027D1278BA07462691FB3A389E689591CC8
:103D90008E421ED0013FBFB201371744208A14E083
:103DA000A16812F8010BC854A389208A01339BB281
:103DB0008342A38104BF0023A4F80CC0BA4203F1DC
:103DC000010106D0E689B14203D08842E8D1002E35
:103DD000E6D10023A3740123284684F82430FFF79A
:103DE000B1FF0020F8BD236B9847228B2F4B6169F0
:103DF0002B61D2B20023EA82AB82284601F08AFB13
:103E00000028EED1A77C3FBB268B62690123A374F7
:103E100016B3A389E589591CA9421DD0013EB6B24B
:103E200001361644208A13E0A16812F8010BC85429
:103E3000A389208A01339BB28342A38104BF00235C
:103E4000A781B24203F1010106D0E589A94203D05E
:103E50008842E9D1002DE7D10023A3740523A37084
:103E60000020F8BD6378227E616901F065FCD5F819
:103E7000B83323620023062284F82430A270002085
:103E8000F8BDD0F8B833DB07ABD50423A370A8E79F
:103E9000617828460CF0D2FC0528A2D12846A17EE4
:103EA00001F058FA0028F0D09BE700BFA101000103
:103EB00038B5D0F874330C49DA690C4C158B546161
:103EC0000023022DC1F80130C1F80530C4E90033E8
:103ED00084BF0223138300F58E7102F10800502283
:103EE000FFF7FAFE002038BDB8030020B003002021
:103EF000D0F8743370B5DC69228B3AB1244904F1EF
:103F00000800FFF7EFFE238B834201D0002070BD35
:103F10002048214D002100F5807600F05DF8002159
:103F20006870A6F1E00000F057F80021A870A6F133
:103F3000C00000F051F80021E870A6F1A00000F0E8
:103F40004BF800212871A6F1800000F045F800210F
:103F50006871A6F1600000F03FF80021A871A6F199
:103F6000400000F039F80021E871A6F1200000F0CF
:103F700033F805F8080F0024E1B2304600F02CF8C1
:103F80000134062C05F8010FF6D1034870BD00BFBF
:103F9000B0030020F0640108B803002038B5D0F861
:103FA00074330B4CDB690B491D8B59610022042DC6
:103FB000226022710A6084BF04221A8300F58E7188
:103FC000282203F10800FFF787FE002038BD00BF5C
:103FD000C8030020D0030020F0B4437A0568077AB4
:103FE0004BBB4668F1084A1C16F0070F4FF0000360
:103FF00018BF11461A4603E02A78DC00A2400133BC
:104000008B42F9D1012101FA06F4FA40631EC5681A
:104010001A40954211D8036993420ED3837AC0693E
:10402000B3B1013E01FA06F6164211D064422243B2
:1040300000FB02F002E08B4202D80020F0BC704787
:10404000466806FB017105EBD10501F00707C9E7DA
:1040500000FB02F0F0BC704770B558B30025044671
:1040600080F8BC23C0F87453C0F878533C220E4645
:1040700000F55F70294611F009F829464FF40072E7
:1040800004F58E7011F002F8012340214FF4807284
:1040900025706570C4F8B8536576A3702376A17156
:1040A000A4F81C230EB1C4F8C46320460CF022FB14
:1040B000002070BD054811F099F8054811F096F8F8
:1040C0000A2011F0ABF8022070BD00BF284F020893
:1040D000304F020808B5A9B1D0F8783333B90122BE
:1040E000C0F87013C0F87823184608BD0B4811F0CB
:1040F0007DF80B4811F07AF80A2011F08FF80223AE
:10410000184608BD054811F071F8064811F06EF820
:104110000A2011F083F80223E6E700BF284F0208C7
:10412000444F0208604F020838B590F836338B428E
:1041300026D90546184885F81F130C4611F056F885
:104140000A2011F06BF81A2303FB0454134894F867
:10415000411311F04BF80A2011F060F894F8421363
:104160000F4811F043F80A2011F058F894F843135F
:104170000C4811F03BF80A2011F050F8002038BD2F
:10418000094811F033F8094811F030F80A2011F00D
:1041900045F8022038BD00BF784F0208984F02084A
:1041A000A84F0208B84F0208284F0208C84F02085B
:1041B00010B490F841438C4209D0FF2907D090F801
:1041C0005B438C420FD0FF205DF8044B704790F8A2
:1041D0004243944215D0FF2A13D090F85B438C429F
:1041E00001D0FF29EFD190F85C13914201D0FF2A52
:1041F000E9D190F85D239A4201D0FF2BE3D1012051
:1042000006E090F843439C4201D0FF2BE5D100200B
:10421000C0B2D9E710B504460CF098FA2046012147
:104220000CF010FB002010BD70B586B002238DF895
:104230001730037804460A2B2FD8DFE813F0590013
:104240002E00A500DD002E0066007D008D0096008A
:104250003100040190F83013002900F0C88100F506
:104260008E752A46FF2300F0BDFCB0B92946CE4822
:1042700010F0BCFF0A2010F0D1FFCC4810F0B6FFC0
:104280000A2010F0CBFF94F831330022012B84F880
:104290001F2300F0A38107232370002006B070BD08
:1042A000D0F87833002B00F06F810022D0F8703303
:1042B000C0F87423197990F84123914240F06B8142
:1042C000C0F874339B689847D4F87433002840F0E2
:1042D00051811968B6480623237010F087FF0A2021
:1042E00010F09CFFD4F8C433204603219847D4E74C
:1042F00090F81E33002BD0D001230370C8200CF09F
:10430000B9FA20460CF04CFAC7E74378072BC4D81B
:1043100001A252F823F000BFDD4400084345000825
:1043200007450008CB440008B7440008874400084C
:104330005744000855420008D0F87433002B00F0B1
:104340006F811B6998478DF817009DF81730002B77
:10435000A3D10A232370A0E7D0F8C433002B9CD04C
:10436000012198470823237097E790F8371300F04E
:1043700011FF002891D1092323708E4810F036FFD9
:104380000A2010F04BFF88E78B4810F02FFF0A201F
:1043900010F044FF64200CF06DFA20460CF0F2F9A6
:1043A0000523237084F81D030021204601F0EAF95B
:1043B00080216071204601F0E5F90146A07994F86A
:1043C0001C3394F81D2321710025CDE90150009282
:1043D0008022204601F0C0F994F81D03A67994F8D4
:1043E0001C336179009001952A460296204601F01F
:1043F000B3F9002006B070BD3C22002100F55F70CB
:1044000010F044FE4FF40072002104F58E7010F09D
:104410003DFED4F874230025012340204FF4807121
:1044200025706570C4F8B8536576A3702376A071C3
:10443000A4F81C13002A3FF430AFD36820469847F5
:10444000C4F8745329E7D0F87433002B3FF425AF38
:104450005B69984721E790F82F13002900F0CE8080
:1044600000F58E752A46FF2300F0BCFB00287FF480
:1044700014AF2946514810F0B9FE0A2010F0CEFEC4
:104480000723637009E790F82E13002900F0BF801E
:1044900000F58E752A46FF2300F0A4FB00287FF468
:1044A000FCAE2946464810F0A1FE0A2010F0B6FEE8
:1044B00006236370F1E6B0F8341300F02DFA0028FB
:1044C0007FF4EBAE05236370E7E6092100F024FAE0
:1044D00000287FF4E2AE04236370DEE6082100F0DA
:1044E00003F9054600287FF4D8AE94F8272394F802
:1044F0001D0394F81C33217901950126A2710292C3
:104500006670009064E7012100F064FD0546002814
:104510007FF4C3AE02200CF0ADF9012184F81C1326
:10452000284810F063FE0A2010F078FE0326A079D8
:1045300094F81C33217994F81D230195667002903C
:1045400045E7122100F0D0F800287FF4A6AEB4F8B9
:104550002A131D4810F04AFE0A2010F05FFEB4F83E
:1045600028131A4810F042FE0A2010F057FE0223CA
:10457000637092E6196816480C23237010F036FE1B
:104580000A2010F04BFE88E6124810F02FFE0A2099
:1045900010F044FE81E60C2303700F4810F026FE55
:1045A0000A2010F03BFE78E6745002089C50020886
:1045B00014510208D8500208E84F0208545002086B
:1045C0002C50020814500208FC4F02080850020840
:1045D00028510208F450020848510208164810F009
:1045E00005FE0A2010F01AFE0823237055E6134832
:1045F00010F0FCFD0A2010F011FE3EE6104810F00D
:10460000F5FD0A2010F00AFE0723637045E60D4809
:1046100010F0ECFD0A2010F001FE062363703CE66A
:104620000C230370084810F0E1FD084810F0DEFD8F
:104630000A2010F0F3FD30E6B0500208885002085E
:104640006450020840500208284F020870510208C6
:10465000C0F8B813704700BFD0F8B8230132C0F8D3
:10466000B82302780A2A00D07047D0F87433002BA0
:10467000FAD09B69184700BF027808B54AB9D0F84C
:10468000C423012180F81E130AB1042190470020A1
:1046900008BD0278012A04BF02220270002008BD72
:1046A00010B504460CF060F82179204601F0BEF800
:1046B0006179204601F0BAF8D4F8C433002284F8B6
:1046C0001E2313B1052120469847064810F08EFDA1
:1046D0000A2010F0A3FD20460CF038F803232370C5
:1046E000002010BD88510208F0B58378012B83B0FB
:1046F00013D0022B03D00123184603B0F0BD037E74
:10470000013B0D4604460A2BF5D8DFE803F02F38AD
:10471000449D808E505C6775150000F58E747B4E4D
:10472000C182002502228181037606618582846030
:104730008270184603B0F0BD437E0133DBB2022B1A
:10474000437640F2D480D0F8C43306219847002342
:1047500063766F4810F04AFD6E4810F047FD0A205E
:1047600010F05CFD0123A3700223C5E7427900F13C
:10477000100100F0A9FF022323760123BCE7417951
:104780000CF05CF8012800F0A7800428B3D10B23BB
:1047900023760123B0E7D0F8B833C3818289037947
:1047A000816800F0B9FF042323760123A4E70022E7
:1047B0000379114600F0B0FFD4F8B833E381082341
:1047C0002376012398E701790CF038F8012843D0CB
:1047D0000428DCD005288ED103238DE70022012593
:1047E00043790095114600F07FFFD4F8B833E38198
:1047F0000A222B4622767FE741790CF01FF8012828
:104800002AD00228C1D109232376012374E7012588
:10481000437982898168009500F066FFD4F8B83347
:10482000E38106222B46227666E741790CF006F8F2
:1048300001284DD0052860D0022854D004287FF4E8
:104840005AAF0B2323768DE701790BF0F7FF012890
:10485000D9D0052899D1BFE794F81F3194F81E21CB
:1048600094F81C0194F81D1184F8200302EB032234
:1048700001200023A4F82223082DD4F82021A070C1
:10488000237684F82113C4F824237FF635AF94F8F7
:10489000295194F8257194F8240194F8282194F86A
:1048A000276194F8261100EB072002EB0522D4F8CB
:1048B0002A51A4F8280301EB06211846A4F82A136C
:1048C000A4F82C23C4F82E5303B0F0BD002A9ADBC1
:1048D0000723237601230FE7E38A94F91020002BA6
:1048E000F4D0002A0DDB05232376012304E70BF027
:1048F0003BFF01232376A370FEE60C2323760323DC
:10490000FAE6032203462276F6E600BF800600019F
:10491000284F0208A05102082DE9F0438378012BAB
:1049200083B000F11C0514D0022B04D001231846DB
:1049300003B0BDE8F083037E013B0E4604460A2B1C
:10494000F4D8DFE803F02E37439F7F8D4F5B66740A
:104950001400A14EC1820024022285608181037669
:10496000066184828270184603B0BDE8F083437EFE
:104970000133DBB2022B437640F22081D0F8C433FE
:104980000621984700236376944810F02FFC944842
:1049900010F02CFC0A2010F041FC0123A37002232C
:1049A000C5E7427900F1100100F08EFE0223237664
:1049B0000123BCE741790BF041FF012800F0F380AF
:1049C0000428B3D10B2323760123B0E7D0F8B83302
:1049D000C38182890379816800F09EFE04232376D7
:1049E0000123A4E700220379114600F095FED4F8D4
:1049F000B833E38108232376012398E701790BF08C
:104A00001DFF012846D00428DCD005288ED10323C1
:104A10008DE70022012543790095114600F064FEE0
:104A2000D4F8B833E3810A222B4622767FE7417916
:104A30000BF004FF01282DD00228C1D109232376D1
:104A4000012374E70125437982898168009500F08C
:104A50004BFED4F8B833E38106222B46227666E774
:104A600041790BF0EBFE012800F09980052800F059
:104A7000AB80022800F09E8004287FF457AF0B2300
:104A800023768AE701790BF0D9FE0128D6D00528D4
:104A900096D1BCE7E37FA07F227F84F8322300EB2E
:104AA00003200122637FA27080B20027226A84F86B
:104AB0003333092E94F82430A4F834032776C4F84D
:104AC000362384F83A330DD9264609224FF01A0CC2
:104AD00006E02B781D441344697804299AB206D065
:104AE0009042F6D80023184603B0BDE8F0832B7837
:104AF00086F83C336B7886F83D33AB7886F83E33E6
:104B0000EB7886F83F3395F8049086F840936B79FC
:104B100086F84133AB7986F84233EB7986F8433334
:104B20002B7A86F8443300210CFB07F849452EDA2E
:104B300090422CD92B781D44134495F801E0BEF126
:104B4000050F9AB2F2D1013108EBC103234495F865
:104B500000E083F83EE395F801E083F83FE395F841
:104B600002E083F840E395F803E083F841E395F829
:104B7000059095F804E00EEB092EA3F842E395F8B2
:104B800006E083F844E396F8409349B2CEE71A363C
:104B9000002FA7D10127A3E7002BFFF64FAF072374
:104BA00023760123C3E6E28A94F91030002AF3D079
:104BB000002B0DDB052323760123B8E60BF0D4FD93
:104BC00001232376A370B2E60C2323760323AEE6FB
:104BD000032203462276AAE680060002284F020836
:104BE000A051020870B505468078012884B005F50B
:104BF0008E7410D0022802D0012004B070BD297E2E
:104C000001390A29F8D8DFE801F0323C49B192A114
:104C100056637382170041F440714FF4D066698285
:104C2000022240F20941EB82AC60AB8128762E82F1
:104C3000A982AA7004B070BD6B7E0133DBB2022B77
:104C40006B7640F2CA800621D5F8C43328469847CF
:104C500000236B76684810F0C9FA684810F0C6FA6D
:104C60000A2010F0DBFA0123AB700220C5E76A7955
:104C700005F11001284600F027FD02232B760120C4
:104C8000BBE7697928460BF0D9FD012800F09A802E
:104C90000428B1D10B232B760120AEE7D5F8B83329
:104CA000EB81AA892B79A968284600F035FD0423F9
:104CB0002B760120A1E700222B791146284600F02F
:104CC0002BFDD5F8B833EB8108232B76012094E730
:104CD00029792846CDE902230BF0B0FD0128DDE952
:104CE00002234CD00428D5D0052885D1032084E7A1
:104CF000012400226B7900941146284600F0F4FC50
:104D0000D5F8B833EB810A2320462B7675E769790D
:104D10002846CDE902230BF091FD0128DDE90223AD
:104D20002DD00228B4D109232B76012065E7012478
:104D30006B79AA89A9680094284600F0D5FCD5F8BB
:104D4000B833EB81062320462B7656E7697928464F
:104D50000BF074FD012831D0052845D0022838D049
:104D600004287FF449AF0B232B767CE7297928466A
:104D70000BF064FD0128D6D0052889D1B6E795F857
:104D80001D11012600200329AE7028767FF435AF6F
:104D900095F81C1102398B42A8BF0B469BB23BB160
:104DA0002118023080B2897802F8011B8342F7D8BB
:104DB0000020107004B070BD002AB4DB07232B76EE
:104DC00001201AE7EB8A95F91020002BF4D0002A75
:104DD0000EDB05232B7601200FE728460BF0C4FCE1
:104DE00001202876A87008E70C232B76032004E71F
:104DF00003232B7601E700BF284F0208A0510208C9
:104E000070B5847882B0012CBDF8185012D0022CF5
:104E100003D00124204602B070BD037E013B05464D
:104E20000A2BF6D8DFE803F038414CA38794586486
:104E30006F7C1E0002F47F46B6F5407F61F07F0173
:104E400040F209460174428218BF00260621022260
:104E5000C582836085810476868241748270204693
:104E600002B070BD437E0133DBB2022B437640F2C9
:104E70009E80D0F8C4330621984700236B765348B0
:104E800010F0B4F9524810F0B1F90A2010F0C6F948
:104E90000123AB700224BDE7427900F1100100F05C
:104EA00013FC02232B760124B4E741790BF0C6FCF6
:104EB000012871D00428ACD10B232B760124A9E75B
:104EC000D0F8B833C38182890379816800F024FC6B
:104ED00004232B7601249DE700220379114600F07C
:104EE0001BFCD5F8B833EB8108232B76012491E71E
:104EF00001790BF0A3FC012841D00428DCD005285F
:104F000087D1032486E700220124437900941146C7
:104F100000F0EAFBD5F8B833EB810A232B7679E76A
:104F200041790BF08BFC012829D00228C2D109233A
:104F30002B7601246EE701244379828981680094ED
:104F400000F0D2FBD5F8B833EB8106232B7661E76E
:104F500041790BF073FC01281AD005282DD00228C6
:104F600021D004287FF455AF0B232B7690E70179ED
:104F70000BF064FC0128DAD005289BD1C1E700249E
:104F800001232046AB702C7602B070BD002ACEDB28
:104F900007232B7601243DE7EB8A95F91020002B9F
:104FA000F4D0002A0DDB05232B76012432E70124FF
:104FB0000BF0DAFB2C76AC702CE70C232B76032459
:104FC00028E7032304462B7624E700BF284F020876
:104FD000A051020830B58378012B83B012D0022B88
:104FE00003D00123184603B030BD037E013B0546C4
:104FF0000A2BF6D8DFE803F02E37429B7E8C4E5A00
:105000006573140000224FF4A065022441820376E8
:1050100005824261826082818470184603B030BD8F
:10502000437E0133DBB2022B437640F2A080D0F8FE
:10503000C4330621984700236B76544810F0D6F805
:10504000534810F0D3F80A2010F0E8F80123AB70B1
:105050000223C7E7427900F1100100F035FB02237B
:105060002B760123BEE741790BF0E8FB012873D0D2
:105070000428B6D10B232B760123B3E7D0F8B8333D
:10508000C38182890379816800F046FB04232B7673
:105090000123A7E700220379114600F03DFBD5F874
:1050A000B833EB8108232B7601239BE701790BF0C2
:1050B000C5FB012843D00428DCD0052891D1032367
:1050C00090E70022012443790094114600F00CFB84
:1050D000D5F8B833EB810A2223462A7682E7417954
:1050E0000BF0ACFB01282AD00228C1D109232B7672
:1050F000012377E70124437982898168009400F0D5
:10510000F3FAD5F8B833EB81062223462A7669E70D
:1051100041790BF093FB01281AD005282DD00228E5
:1051200021D004287FF45DAF0B232B768EE7017925
:105130000BF084FB0128D9D0052899D1BFE70023C3
:1051400001221846AA702B7603B030BD002ACDDBB1
:1051500007232B76012345E7EB8A95F91020002BD6
:10516000F4D0002A0DDB05232B7601233AE70BF060
:10517000FBFA01232B76AB7034E70C232B76032349
:1051800030E7032203462A762CE700BF284F0208A7
:10519000A051020830B58378012B83B012D0022BC6
:1051A00003D00123184603B030BD037E013B054602
:1051B0000A2BF6D8DFE803F02E37429B7E8C4E5A3E
:1051C0006573140000224FF41065022441820376B7
:1051D00005824261826082818470184603B030BDCE
:1051E000437E0133DBB2022B437640F2A080D0F83D
:1051F000C4330621984700236B7654480FF0F6FF1E
:1052000053480FF0F3FF0A2010F008F80123AB70A9
:105210000223C7E7427900F1100100F055FA02239A
:105220002B760123BEE741790BF008FB012873D0F0
:105230000428B6D10B232B760123B3E7D0F8B8337B
:10524000C38182890379816800F066FA04232B7692
:105250000123A7E700220379114600F05DFAD5F893
:10526000B833EB8108232B7601239BE701790BF000
:10527000E5FA012843D00428DCD0052891D1032386
:1052800090E70022012443790094114600F02CFAA3
:10529000D5F8B833EB810A2223462A7682E7417992
:1052A0000BF0CCFA01282AD00228C1D109232B7691
:1052B000012377E70124437982898168009400F013
:1052C00013FAD5F8B833EB81062223462A7669E72C
:1052D00041790BF0B3FA01281AD005282DD0022805
:1052E00021D004287FF45DAF0B232B768EE7017964
:1052F0000BF0A4FA0128D9D0052899D1BFE70023E3
:1053000001221846AA702B7603B030BD002ACDDBEF
:1053100007232B76012345E7EB8A95F91020002B14
:10532000F4D0002A0DDB05232B7601233AE70BF09E
:105330001BFA01232B76AB7034E70C232B76032367
:1053400030E7032203462A762CE700BF284F0208E5
:10535000A051020830B58378012B83B012D0022B04
:1053600003D00123184603B030BD037E013B054640
:105370000A2BF6D8DFE803F02E37429B7E8C4E5A7C
:105380006573140000224FF4817502248182037634
:105390000561C282826082818470184603B030BD8C
:1053A000437E0133DBB2022B437640F2A080D0F87B
:1053B000C4330621984700236B7654480FF016FF3C
:1053C00053480FF013FF0A200FF028FF0123AB70A2
:1053D0000223C7E7427900F1100100F075F90223BA
:1053E0002B760123BEE741790BF028FA012873D010
:1053F0000428B6D10B232B760123B3E7D0F8B833BA
:10540000C38182890379816800F086F904232B76B1
:105410000123A7E700220379114600F07DF9D5F8B2
:10542000B833EB8108232B7601239BE701790BF03E
:1054300005FA012843D00428DCD0052891D10323A4
:1054400090E70022012443790094114600F04CF9C2
:10545000D5F8B833EB810A2223462A7682E74179D0
:105460000BF0ECF901282AD00228C1D109232B76B0
:10547000012377E70124437982898168009400F051
:1054800033F9D5F8B833EB81062223462A7669E74B
:1054900041790BF0D3F901281AD005282DD0022824
:1054A00021D004287FF45DAF0B232B768EE70179A2
:1054B0000BF0C4F90128D9D0052899D1BFE7002302
:1054C00001221846AA702B7603B030BD002ACDDB2E
:1054D00007232B76012345E7EB8A95F91020002B53
:1054E000F4D0002A0DDB05232B7601233AE70BF0DD
:1054F0003BF901232B76AB7034E70C232B76032387
:1055000030E7032203462A762CE700BF284F020823
:10551000A051020830B58378012B83B012D0022B42
:1055200003D00123184603B030BD037E013B05467E
:105530000A2BF6D8DFE803F028313C9578864854EA
:105540005F6D0E00022481608281037684701846AC
:1055500003B030BD437E0133DBB2022B437640F211
:10556000A080D0F8C4330621984700236B765448B6
:105570000FF03CFE53480FF039FE0A200FF04EFEAC
:105580000123AB700223CDE7427900F1100100F056
:105590009BF802232B760123C4E741790BF04EF9E7
:1055A000012873D00428BCD10B232B760123B9E743
:1055B000D0F8B833C38182890379816800F0ACF8F0
:1055C00004232B760123ADE700220379114600F076
:1055D000A3F8D5F8B833EB8108232B760123A1E794
:1055E00001790BF02BF9012843D00428DCD00528E1
:1055F00097D1032396E700220124437900941146B2
:1056000000F072F8D5F8B833EB810A2223462A76E7
:1056100088E741790BF012F901282AD00228C1D17C
:1056200009232B7601237DE7012443798289816850
:10563000009400F059F8D5F8B833EB8106222346E0
:105640002A766FE741790BF0F9F801281AD005287E
:105650002DD0022821D004287FF463AF0B232B76B2
:105660008EE701790BF0EAF80128D9D0052899D105
:10567000BFE7002301221846AA702B7603B030BD85
:10568000002ACDDB07232B7601234BE7EB8A95F924
:105690001020002BF4D0002A0DDB05232B760123EC
:1056A00040E70BF061F801232B76AB703AE70C234F
:1056B0002B76032336E7032203462A7632E700BF20
:1056C000284F0208A051020830B585B000240825F3
:1056D00001910394114600942346224602950BF053
:1056E00093F8204605B030BD30B590F81D5385B015
:1056F000002D9DF8204002921D4618BF0024002373
:10570000012201910092039429461A460BF07CF87D
:10571000002005B030BD00BF30B585B000240125A4
:10572000CDE9011203941946009523462A460BF051
:105730006BF8204605B030BD30B585B0002401259A
:10574000CDE901120394194600952A4603230BF074
:105750005BF8204605B030BD30B585B09DF82040DF
:105760009DF824500094BDF82840CDE901540BF079
:1057700025F8002005B030BD08B50BF037F8002043
:1057800008BD00BF0346D0F87C0310F400402AD0C7
:10579000D3F8802310042ED5D3F8842312042DD5FA
:1057A000D3F8882310042CD5D3F88C2312042BD5DE
:1057B000D3F8902310042AD5D3F8942312042CD5BF
:1057C000D3F8982310042BD5D3F89C23120421D5A9
:1057D000D3F8A023100405D5D3F8A423120422D5AE
:1057E000FF2070470920024603EB820341F4004189
:1057F000C3F87C13704701200246F5E702200246F9
:10580000F2E703200246EFE704200246ECE705201A
:105810000246E9E708200246E6E706200246E3E7FB
:1058200007200246E0E70A200246DDE70A2907D8FA
:1058300000EB8100D0F87C33C3F30E03C0F87C3357
:1058400000207047034B03EB800203445268187A30
:10585000536818471C030020064B1A5C42B903EB3F
:10586000800201211954526803441268187A1047C3
:10587000002070471C03002030B4054C04EB800569
:1058800004446D68207AAC68A44630BC604700BF11
:105890001C03002030B4054C04EB800504446D6803
:1058A000207AEC68A44630BC604700BF1C0300208F
:1058B000054B10B403EB800403446468187A236931
:1058C0005DF8044B184700BF1C0300202DE9F04190
:1058D000C37804460E4600F1300773B932463946A4
:1058E00001236078FFF7C8FF002818BF4FF0FF368C
:1058F000E66214BF012000201FE0C56A40782A46F6
:1059000001233946FFF7C6FFB0B9236AA269E070E8
:10591000EB1A9342E2D294F802806078B8F1010F5A
:105920004FF001033946D9D9A26915442A46FFF739
:10593000B1FF08F1FF38F0E70120BDE8F081000079
:10594000F8B5C37804465BB92378032B29D000222D
:1059500060781146FFF7ACFF003018BF0120F8BD9A
:10596000C56A407804F130072A4639460123FFF71B
:1059700091FF002855D1226AA369E070AA1A9A42C1
:10598000E2D2A678012E01D8DEE7A36960781D4433
:10599000013E2A4601233946FFF77CFF012EF4D150
:1059A000D2E72579012DD2D104F130064FF40072EF
:1059B000002130460FF06AFBD4E903210023080AD6
:1059C00061F307030F0C60F30F23002062F307005D
:1059D00067F31743090E170A61F31F6367F30F207C
:1059E000110C61F31740120EE169C4F8183262F32A
:1059F0001F602B464A1C4FF0550CC4F81C02AA2706
:105A000009480A4DC4F814023146E26284F82EC2F5
:105A100084F82F7225636078FFF73CFF0023237121
:105A200095E70120F8BD00BF727241615252614199
:105A30002DE9F84F0378022B04460D46174600F077
:105A40008D80032B64D0012B02D00220BDE8F88F9B
:105A5000026AD0F82CA001EB510802EB5829D1457D
:105A600000F1300640F0F18008F1010915F0010560
:105A7000C8F308084FEA592200F0158116F80830DB
:105A800003F00F0343EA071306F80830236AD4F83B
:105A90002CA002EB0308D0454FF00103E37000F0A7
:105AA00021810123524631466078FFF7F3FE00283A
:105AB00040F0C880226AA369E070AAEB02029A4211
:105AC00012D294F802B0BBF1010F01D80CE0A36927
:105AD00060789A440BF1FF3B524601233146FFF7B1
